{"abi":[{"inputs":[{"internalType":"uint256","name":"minimum","type":"uint256"}],"name":"createCampaign","outputs":[],"stateMutability":"nonpayable","type":"function"},{"inputs":[{"internalType":"uint256","name":"","type":"uint256"}],"name":"deployedCampaigns","outputs":[{"internalType":"address","name":"","type":"address"}],"stateMutability":"view","type":"function"},{"inputs":[],"name":"getDeployedCampaigns","outputs":[{"internalType":"address[]","name":"","type":"address[]"}],"stateMutability":"view","type":"function"}],"devdoc":{"kind":"dev","methods":{},"version":1},"evm":{"assembly":"    /* \"Campaign.sol\":65:430  contract CampaignFactory {... */\n  mstore(0x40, 0x80)\n  callvalue\n  dup1\n  iszero\n  tag_1\n  jumpi\n  0x00\n  dup1\n  revert\ntag_1:\n  pop\n  dataSize(sub_0)\n  dup1\n  dataOffset(sub_0)\n  0x00\n  codecopy\n  0x00\n  return\nstop\n\nsub_0: assembly {\n        /* \"Campaign.sol\":65:430  contract CampaignFactory {... */\n      mstore(0x40, 0x80)\n      callvalue\n      dup1\n      iszero\n      tag_1\n      jumpi\n      0x00\n      dup1\n      revert\n    tag_1:\n      pop\n      jumpi(tag_2, lt(calldatasize, 0x04))\n      shr(0xe0, calldataload(0x00))\n      dup1\n      0x339d50a5\n      eq\n      tag_3\n      jumpi\n      dup1\n      0x4acb9d4f\n      eq\n      tag_4\n      jumpi\n      dup1\n      0xa3303a75\n      eq\n      tag_5\n      jumpi\n    tag_2:\n      0x00\n      dup1\n      revert\n        /* \"Campaign.sol\":96:130  address[] public deployedCampaigns */\n    tag_3:\n      tag_6\n      0x04\n      dup1\n      calldatasize\n      sub\n      dup2\n      add\n      swap1\n      tag_7\n      swap2\n      swap1\n      tag_8\n      jump\t// in\n    tag_7:\n      tag_9\n      jump\t// in\n    tag_6:\n      mload(0x40)\n      tag_10\n      swap2\n      swap1\n      tag_11\n      jump\t// in\n    tag_10:\n      mload(0x40)\n      dup1\n      swap2\n      sub\n      swap1\n      return\n        /* \"Campaign.sol\":315:427  function getDeployedCampaigns() public view returns(address[] memory) {... */\n    tag_4:\n      tag_12\n      tag_13\n      jump\t// in\n    tag_12:\n      mload(0x40)\n      tag_14\n      swap2\n      swap1\n      tag_15\n      jump\t// in\n    tag_14:\n      mload(0x40)\n      dup1\n      swap2\n      sub\n      swap1\n      return\n        /* \"Campaign.sol\":137:309  function createCampaign(uint minimum) public {... */\n    tag_5:\n      tag_16\n      0x04\n      dup1\n      calldatasize\n      sub\n      dup2\n      add\n      swap1\n      tag_17\n      swap2\n      swap1\n      tag_8\n      jump\t// in\n    tag_17:\n      tag_18\n      jump\t// in\n    tag_16:\n      stop\n        /* \"Campaign.sol\":96:130  address[] public deployedCampaigns */\n    tag_9:\n      0x00\n      dup2\n      dup2\n      sload\n      dup2\n      lt\n      tag_19\n      jumpi\n      0x00\n      dup1\n      revert\n    tag_19:\n      swap1\n      0x00\n      mstore\n      keccak256(0x00, 0x20)\n      add\n      0x00\n      swap2\n      pop\n      sload\n      swap1\n      0x0100\n      exp\n      swap1\n      div\n      0xffffffffffffffffffffffffffffffffffffffff\n      and\n      dup2\n      jump\t// out\n        /* \"Campaign.sol\":315:427  function getDeployedCampaigns() public view returns(address[] memory) {... */\n    tag_13:\n        /* \"Campaign.sol\":367:383  address[] memory */\n      0x60\n        /* \"Campaign.sol\":403:420  deployedCampaigns */\n      0x00\n        /* \"Campaign.sol\":396:420  return deployedCampaigns */\n      dup1\n      sload\n      dup1\n      0x20\n      mul\n      0x20\n      add\n      mload(0x40)\n      swap1\n      dup2\n      add\n      0x40\n      mstore\n      dup1\n      swap3\n      swap2\n      swap1\n      dup2\n      dup2\n      mstore\n      0x20\n      add\n      dup3\n      dup1\n      sload\n      dup1\n      iszero\n      tag_22\n      jumpi\n      0x20\n      mul\n      dup3\n      add\n      swap2\n      swap1\n      0x00\n      mstore\n      keccak256(0x00, 0x20)\n      swap1\n    tag_23:\n      dup2\n      0x00\n      swap1\n      sload\n      swap1\n      0x0100\n      exp\n      swap1\n      div\n      0xffffffffffffffffffffffffffffffffffffffff\n      and\n      0xffffffffffffffffffffffffffffffffffffffff\n      and\n      dup2\n      mstore\n      0x20\n      add\n      swap1\n      0x01\n      add\n      swap1\n      dup1\n      dup4\n      gt\n      tag_23\n      jumpi\n    tag_22:\n      pop\n      pop\n      pop\n      pop\n      pop\n      swap1\n      pop\n        /* \"Campaign.sol\":315:427  function getDeployedCampaigns() public view returns(address[] memory) {... */\n      swap1\n      jump\t// out\n        /* \"Campaign.sol\":137:309  function createCampaign(uint minimum) public {... */\n    tag_18:\n        /* \"Campaign.sol\":192:212  Campaign newCampaign */\n      0x00\n        /* \"Campaign.sol\":228:235  minimum */\n      dup2\n        /* \"Campaign.sol\":237:247  msg.sender */\n      caller\n        /* \"Campaign.sol\":215:248  new Campaign(minimum, msg.sender) */\n      mload(0x40)\n      tag_25\n      swap1\n      tag_26\n      jump\t// in\n    tag_25:\n      tag_27\n      swap3\n      swap2\n      swap1\n      tag_28\n      jump\t// in\n    tag_27:\n      mload(0x40)\n      dup1\n      swap2\n      sub\n      swap1\n      0x00\n      create\n      dup1\n      iszero\n      dup1\n      iszero\n      tag_29\n      jumpi\n      returndatasize\n      0x00\n      dup1\n      returndatacopy\n      revert(0x00, returndatasize)\n    tag_29:\n      pop\n        /* \"Campaign.sol\":192:248  Campaign newCampaign = new Campaign(minimum, msg.sender) */\n      swap1\n      pop\n        /* \"Campaign.sol\":258:275  deployedCampaigns */\n      0x00\n        /* \"Campaign.sol\":289:300  newCampaign */\n      dup2\n        /* \"Campaign.sol\":258:302  deployedCampaigns.push(address(newCampaign)) */\n      swap1\n      dup1\n      0x01\n      dup2\n      sload\n      add\n      dup1\n      dup3\n      sstore\n      dup1\n      swap2\n      pop\n      pop\n      0x01\n      swap1\n      sub\n      swap1\n      0x00\n      mstore\n      keccak256(0x00, 0x20)\n      add\n      0x00\n      swap1\n      swap2\n      swap1\n      swap2\n      swap1\n      swap2\n      0x0100\n      exp\n      dup2\n      sload\n      dup2\n      0xffffffffffffffffffffffffffffffffffffffff\n      mul\n      not\n      and\n      swap1\n      dup4\n      0xffffffffffffffffffffffffffffffffffffffff\n      and\n      mul\n      or\n      swap1\n      sstore\n      pop\n        /* \"Campaign.sol\":182:309  {... */\n      pop\n        /* \"Campaign.sol\":137:309  function createCampaign(uint minimum) public {... */\n      pop\n      jump\t// out\n    tag_26:\n      dataSize(sub_0)\n      dup1\n      dataOffset(sub_0)\n      dup4\n      codecopy\n      add\n      swap1\n      jump\t// out\n        /* \"#utility.yul\":88:205   */\n    tag_32:\n        /* \"#utility.yul\":197:198   */\n      0x00\n        /* \"#utility.yul\":194:195   */\n      dup1\n        /* \"#utility.yul\":187:199   */\n      revert\n        /* \"#utility.yul\":334:411   */\n    tag_34:\n        /* \"#utility.yul\":371:378   */\n      0x00\n        /* \"#utility.yul\":400:405   */\n      dup2\n        /* \"#utility.yul\":389:405   */\n      swap1\n      pop\n        /* \"#utility.yul\":334:411   */\n      swap2\n      swap1\n      pop\n      jump\t// out\n        /* \"#utility.yul\":417:539   */\n    tag_35:\n        /* \"#utility.yul\":490:514   */\n      tag_54\n        /* \"#utility.yul\":508:513   */\n      dup2\n        /* \"#utility.yul\":490:514   */\n      tag_34\n      jump\t// in\n    tag_54:\n        /* \"#utility.yul\":483:488   */\n      dup2\n        /* \"#utility.yul\":480:515   */\n      eq\n        /* \"#utility.yul\":470:533   */\n      tag_55\n      jumpi\n        /* \"#utility.yul\":529:530   */\n      0x00\n        /* \"#utility.yul\":526:527   */\n      dup1\n        /* \"#utility.yul\":519:531   */\n      revert\n        /* \"#utility.yul\":470:533   */\n    tag_55:\n        /* \"#utility.yul\":417:539   */\n      pop\n      jump\t// out\n        /* \"#utility.yul\":545:684   */\n    tag_36:\n        /* \"#utility.yul\":591:596   */\n      0x00\n        /* \"#utility.yul\":629:635   */\n      dup2\n        /* \"#utility.yul\":616:636   */\n      calldataload\n        /* \"#utility.yul\":607:636   */\n      swap1\n      pop\n        /* \"#utility.yul\":645:678   */\n      tag_57\n        /* \"#utility.yul\":672:677   */\n      dup2\n        /* \"#utility.yul\":645:678   */\n      tag_35\n      jump\t// in\n    tag_57:\n        /* \"#utility.yul\":545:684   */\n      swap3\n      swap2\n      pop\n      pop\n      jump\t// out\n        /* \"#utility.yul\":690:1019   */\n    tag_8:\n        /* \"#utility.yul\":749:755   */\n      0x00\n        /* \"#utility.yul\":798:800   */\n      0x20\n        /* \"#utility.yul\":786:795   */\n      dup3\n        /* \"#utility.yul\":777:784   */\n      dup5\n        /* \"#utility.yul\":773:796   */\n      sub\n        /* \"#utility.yul\":769:801   */\n      slt\n        /* \"#utility.yul\":766:885   */\n      iszero\n      tag_59\n      jumpi\n        /* \"#utility.yul\":804:883   */\n      tag_60\n      tag_32\n      jump\t// in\n    tag_60:\n        /* \"#utility.yul\":766:885   */\n    tag_59:\n        /* \"#utility.yul\":924:925   */\n      0x00\n        /* \"#utility.yul\":949:1002   */\n      tag_61\n        /* \"#utility.yul\":994:1001   */\n      dup5\n        /* \"#utility.yul\":985:991   */\n      dup3\n        /* \"#utility.yul\":974:983   */\n      dup6\n        /* \"#utility.yul\":970:992   */\n      add\n        /* \"#utility.yul\":949:1002   */\n      tag_36\n      jump\t// in\n    tag_61:\n        /* \"#utility.yul\":939:1002   */\n      swap2\n      pop\n        /* \"#utility.yul\":895:1012   */\n      pop\n        /* \"#utility.yul\":690:1019   */\n      swap3\n      swap2\n      pop\n      pop\n      jump\t// out\n        /* \"#utility.yul\":1025:1151   */\n    tag_37:\n        /* \"#utility.yul\":1062:1069   */\n      0x00\n        /* \"#utility.yul\":1102:1144   */\n      0xffffffffffffffffffffffffffffffffffffffff\n        /* \"#utility.yul\":1095:1100   */\n      dup3\n        /* \"#utility.yul\":1091:1145   */\n      and\n        /* \"#utility.yul\":1080:1145   */\n      swap1\n      pop\n        /* \"#utility.yul\":1025:1151   */\n      swap2\n      swap1\n      pop\n      jump\t// out\n        /* \"#utility.yul\":1157:1253   */\n    tag_38:\n        /* \"#utility.yul\":1194:1201   */\n      0x00\n        /* \"#utility.yul\":1223:1247   */\n      tag_64\n        /* \"#utility.yul\":1241:1246   */\n      dup3\n        /* \"#utility.yul\":1223:1247   */\n      tag_37\n      jump\t// in\n    tag_64:\n        /* \"#utility.yul\":1212:1247   */\n      swap1\n      pop\n        /* \"#utility.yul\":1157:1253   */\n      swap2\n      swap1\n      pop\n      jump\t// out\n        /* \"#utility.yul\":1259:1377   */\n    tag_39:\n        /* \"#utility.yul\":1346:1370   */\n      tag_66\n        /* \"#utility.yul\":1364:1369   */\n      dup2\n        /* \"#utility.yul\":1346:1370   */\n      tag_38\n      jump\t// in\n    tag_66:\n        /* \"#utility.yul\":1341:1344   */\n      dup3\n        /* \"#utility.yul\":1334:1371   */\n      mstore\n        /* \"#utility.yul\":1259:1377   */\n      pop\n      pop\n      jump\t// out\n        /* \"#utility.yul\":1383:1605   */\n    tag_11:\n        /* \"#utility.yul\":1476:1480   */\n      0x00\n        /* \"#utility.yul\":1514:1516   */\n      0x20\n        /* \"#utility.yul\":1503:1512   */\n      dup3\n        /* \"#utility.yul\":1499:1517   */\n      add\n        /* \"#utility.yul\":1491:1517   */\n      swap1\n      pop\n        /* \"#utility.yul\":1527:1598   */\n      tag_68\n        /* \"#utility.yul\":1595:1596   */\n      0x00\n        /* \"#utility.yul\":1584:1593   */\n      dup4\n        /* \"#utility.yul\":1580:1597   */\n      add\n        /* \"#utility.yul\":1571:1577   */\n      dup5\n        /* \"#utility.yul\":1527:1598   */\n      tag_39\n      jump\t// in\n    tag_68:\n        /* \"#utility.yul\":1383:1605   */\n      swap3\n      swap2\n      pop\n      pop\n      jump\t// out\n        /* \"#utility.yul\":1611:1725   */\n    tag_40:\n        /* \"#utility.yul\":1678:1684   */\n      0x00\n        /* \"#utility.yul\":1712:1717   */\n      dup2\n        /* \"#utility.yul\":1706:1718   */\n      mload\n        /* \"#utility.yul\":1696:1718   */\n      swap1\n      pop\n        /* \"#utility.yul\":1611:1725   */\n      swap2\n      swap1\n      pop\n      jump\t// out\n        /* \"#utility.yul\":1731:1915   */\n    tag_41:\n        /* \"#utility.yul\":1830:1841   */\n      0x00\n        /* \"#utility.yul\":1864:1870   */\n      dup3\n        /* \"#utility.yul\":1859:1862   */\n      dup3\n        /* \"#utility.yul\":1852:1871   */\n      mstore\n        /* \"#utility.yul\":1904:1908   */\n      0x20\n        /* \"#utility.yul\":1899:1902   */\n      dup3\n        /* \"#utility.yul\":1895:1909   */\n      add\n        /* \"#utility.yul\":1880:1909   */\n      swap1\n      pop\n        /* \"#utility.yul\":1731:1915   */\n      swap3\n      swap2\n      pop\n      pop\n      jump\t// out\n        /* \"#utility.yul\":1921:2053   */\n    tag_42:\n        /* \"#utility.yul\":1988:1992   */\n      0x00\n        /* \"#utility.yul\":2011:2014   */\n      dup2\n        /* \"#utility.yul\":2003:2014   */\n      swap1\n      pop\n        /* \"#utility.yul\":2041:2045   */\n      0x20\n        /* \"#utility.yul\":2036:2039   */\n      dup3\n        /* \"#utility.yul\":2032:2046   */\n      add\n        /* \"#utility.yul\":2024:2046   */\n      swap1\n      pop\n        /* \"#utility.yul\":1921:2053   */\n      swap2\n      swap1\n      pop\n      jump\t// out\n        /* \"#utility.yul\":2059:2167   */\n    tag_43:\n        /* \"#utility.yul\":2136:2160   */\n      tag_73\n        /* \"#utility.yul\":2154:2159   */\n      dup2\n        /* \"#utility.yul\":2136:2160   */\n      tag_38\n      jump\t// in\n    tag_73:\n        /* \"#utility.yul\":2131:2134   */\n      dup3\n        /* \"#utility.yul\":2124:2161   */\n      mstore\n        /* \"#utility.yul\":2059:2167   */\n      pop\n      pop\n      jump\t// out\n        /* \"#utility.yul\":2173:2352   */\n    tag_44:\n        /* \"#utility.yul\":2242:2252   */\n      0x00\n        /* \"#utility.yul\":2263:2309   */\n      tag_75\n        /* \"#utility.yul\":2305:2308   */\n      dup4\n        /* \"#utility.yul\":2297:2303   */\n      dup4\n        /* \"#utility.yul\":2263:2309   */\n      tag_43\n      jump\t// in\n    tag_75:\n        /* \"#utility.yul\":2341:2345   */\n      0x20\n        /* \"#utility.yul\":2336:2339   */\n      dup4\n        /* \"#utility.yul\":2332:2346   */\n      add\n        /* \"#utility.yul\":2318:2346   */\n      swap1\n      pop\n        /* \"#utility.yul\":2173:2352   */\n      swap3\n      swap2\n      pop\n      pop\n      jump\t// out\n        /* \"#utility.yul\":2358:2471   */\n    tag_45:\n        /* \"#utility.yul\":2428:2432   */\n      0x00\n        /* \"#utility.yul\":2460:2464   */\n      0x20\n        /* \"#utility.yul\":2455:2458   */\n      dup3\n        /* \"#utility.yul\":2451:2465   */\n      add\n        /* \"#utility.yul\":2443:2465   */\n      swap1\n      pop\n        /* \"#utility.yul\":2358:2471   */\n      swap2\n      swap1\n      pop\n      jump\t// out\n        /* \"#utility.yul\":2507:3239   */\n    tag_46:\n        /* \"#utility.yul\":2626:2629   */\n      0x00\n        /* \"#utility.yul\":2655:2709   */\n      tag_78\n        /* \"#utility.yul\":2703:2708   */\n      dup3\n        /* \"#utility.yul\":2655:2709   */\n      tag_40\n      jump\t// in\n    tag_78:\n        /* \"#utility.yul\":2725:2811   */\n      tag_79\n        /* \"#utility.yul\":2804:2810   */\n      dup2\n        /* \"#utility.yul\":2799:2802   */\n      dup6\n        /* \"#utility.yul\":2725:2811   */\n      tag_41\n      jump\t// in\n    tag_79:\n        /* \"#utility.yul\":2718:2811   */\n      swap4\n      pop\n        /* \"#utility.yul\":2835:2891   */\n      tag_80\n        /* \"#utility.yul\":2885:2890   */\n      dup4\n        /* \"#utility.yul\":2835:2891   */\n      tag_42\n      jump\t// in\n    tag_80:\n        /* \"#utility.yul\":2914:2921   */\n      dup1\n        /* \"#utility.yul\":2945:2946   */\n      0x00\n        /* \"#utility.yul\":2930:3214   */\n    tag_81:\n        /* \"#utility.yul\":2955:2961   */\n      dup4\n        /* \"#utility.yul\":2952:2953   */\n      dup2\n        /* \"#utility.yul\":2949:2962   */\n      lt\n        /* \"#utility.yul\":2930:3214   */\n      iszero\n      tag_83\n      jumpi\n        /* \"#utility.yul\":3031:3037   */\n      dup2\n        /* \"#utility.yul\":3025:3038   */\n      mload\n        /* \"#utility.yul\":3058:3121   */\n      tag_84\n        /* \"#utility.yul\":3117:3120   */\n      dup9\n        /* \"#utility.yul\":3102:3115   */\n      dup3\n        /* \"#utility.yul\":3058:3121   */\n      tag_44\n      jump\t// in\n    tag_84:\n        /* \"#utility.yul\":3051:3121   */\n      swap8\n      pop\n        /* \"#utility.yul\":3144:3204   */\n      tag_85\n        /* \"#utility.yul\":3197:3203   */\n      dup4\n        /* \"#utility.yul\":3144:3204   */\n      tag_45\n      jump\t// in\n    tag_85:\n        /* \"#utility.yul\":3134:3204   */\n      swap3\n      pop\n        /* \"#utility.yul\":2990:3214   */\n      pop\n        /* \"#utility.yul\":2977:2978   */\n      0x01\n        /* \"#utility.yul\":2974:2975   */\n      dup2\n        /* \"#utility.yul\":2970:2979   */\n      add\n        /* \"#utility.yul\":2965:2979   */\n      swap1\n      pop\n        /* \"#utility.yul\":2930:3214   */\n      jump(tag_81)\n    tag_83:\n        /* \"#utility.yul\":2934:2948   */\n      pop\n        /* \"#utility.yul\":3230:3233   */\n      dup6\n        /* \"#utility.yul\":3223:3233   */\n      swap4\n      pop\n        /* \"#utility.yul\":2631:3239   */\n      pop\n      pop\n      pop\n        /* \"#utility.yul\":2507:3239   */\n      swap3\n      swap2\n      pop\n      pop\n      jump\t// out\n        /* \"#utility.yul\":3245:3618   */\n    tag_15:\n        /* \"#utility.yul\":3388:3392   */\n      0x00\n        /* \"#utility.yul\":3426:3428   */\n      0x20\n        /* \"#utility.yul\":3415:3424   */\n      dup3\n        /* \"#utility.yul\":3411:3429   */\n      add\n        /* \"#utility.yul\":3403:3429   */\n      swap1\n      pop\n        /* \"#utility.yul\":3475:3484   */\n      dup2\n        /* \"#utility.yul\":3469:3473   */\n      dup2\n        /* \"#utility.yul\":3465:3485   */\n      sub\n        /* \"#utility.yul\":3461:3462   */\n      0x00\n        /* \"#utility.yul\":3450:3459   */\n      dup4\n        /* \"#utility.yul\":3446:3463   */\n      add\n        /* \"#utility.yul\":3439:3486   */\n      mstore\n        /* \"#utility.yul\":3503:3611   */\n      tag_87\n        /* \"#utility.yul\":3606:3610   */\n      dup2\n        /* \"#utility.yul\":3597:3603   */\n      dup5\n        /* \"#utility.yul\":3503:3611   */\n      tag_46\n      jump\t// in\n    tag_87:\n        /* \"#utility.yul\":3495:3611   */\n      swap1\n      pop\n        /* \"#utility.yul\":3245:3618   */\n      swap3\n      swap2\n      pop\n      pop\n      jump\t// out\n        /* \"#utility.yul\":3624:3742   */\n    tag_47:\n        /* \"#utility.yul\":3711:3735   */\n      tag_89\n        /* \"#utility.yul\":3729:3734   */\n      dup2\n        /* \"#utility.yul\":3711:3735   */\n      tag_34\n      jump\t// in\n    tag_89:\n        /* \"#utility.yul\":3706:3709   */\n      dup3\n        /* \"#utility.yul\":3699:3736   */\n      mstore\n        /* \"#utility.yul\":3624:3742   */\n      pop\n      pop\n      jump\t// out\n        /* \"#utility.yul\":3748:4080   */\n    tag_28:\n        /* \"#utility.yul\":3869:3873   */\n      0x00\n        /* \"#utility.yul\":3907:3909   */\n      0x40\n        /* \"#utility.yul\":3896:3905   */\n      dup3\n        /* \"#utility.yul\":3892:3910   */\n      add\n        /* \"#utility.yul\":3884:3910   */\n      swap1\n      pop\n        /* \"#utility.yul\":3920:3991   */\n      tag_91\n        /* \"#utility.yul\":3988:3989   */\n      0x00\n        /* \"#utility.yul\":3977:3986   */\n      dup4\n        /* \"#utility.yul\":3973:3990   */\n      add\n        /* \"#utility.yul\":3964:3970   */\n      dup6\n        /* \"#utility.yul\":3920:3991   */\n      tag_47\n      jump\t// in\n    tag_91:\n        /* \"#utility.yul\":4001:4073   */\n      tag_92\n        /* \"#utility.yul\":4069:4071   */\n      0x20\n        /* \"#utility.yul\":4058:4067   */\n      dup4\n        /* \"#utility.yul\":4054:4072   */\n      add\n        /* \"#utility.yul\":4045:4051   */\n      dup5\n        /* \"#utility.yul\":4001:4073   */\n      tag_39\n      jump\t// in\n    tag_92:\n        /* \"#utility.yul\":3748:4080   */\n      swap4\n      swap3\n      pop\n      pop\n      pop\n      jump\t// out\n    stop\n\n    sub_0: assembly {\n            /* \"Campaign.sol\":431:3061  contract Campaign {... */\n          mstore(0x40, 0x80)\n            /* \"Campaign.sol\":971:972  0 */\n          0x00\n            /* \"Campaign.sol\":943:972  uint private requestIndex = 0 */\n          0x06\n          sstore\n            /* \"Campaign.sol\":1204:1345  constructor (uint minimum, address campaignCreator) {        ... */\n          callvalue\n          dup1\n          iszero\n          tag_1\n          jumpi\n          0x00\n          dup1\n          revert\n        tag_1:\n          pop\n          mload(0x40)\n          sub(codesize, bytecodeSize)\n          dup1\n          bytecodeSize\n          dup4\n          codecopy\n          dup2\n          dup2\n          add\n          0x40\n          mstore\n          dup2\n          add\n          swap1\n          tag_2\n          swap2\n          swap1\n          tag_3\n          jump\t// in\n        tag_2:\n            /* \"Campaign.sol\":1284:1299  campaignCreator */\n          dup1\n            /* \"Campaign.sol\":1274:1281  manager */\n          0x00\n          dup1\n            /* \"Campaign.sol\":1274:1299  manager = campaignCreator */\n          0x0100\n          exp\n          dup2\n          sload\n          dup2\n          0xffffffffffffffffffffffffffffffffffffffff\n          mul\n          not\n          and\n          swap1\n          dup4\n          0xffffffffffffffffffffffffffffffffffffffff\n          and\n          mul\n          or\n          swap1\n          sstore\n          pop\n            /* \"Campaign.sol\":1331:1338  minimum */\n          dup2\n            /* \"Campaign.sol\":1309:1328  minimumContribution */\n          0x01\n            /* \"Campaign.sol\":1309:1338  minimumContribution = minimum */\n          dup2\n          swap1\n          sstore\n          pop\n            /* \"Campaign.sol\":1204:1345  constructor (uint minimum, address campaignCreator) {        ... */\n          pop\n          pop\n            /* \"Campaign.sol\":431:3061  contract Campaign {... */\n          jump(tag_6)\n            /* \"#utility.yul\":88:205   */\n        tag_8:\n            /* \"#utility.yul\":197:198   */\n          0x00\n            /* \"#utility.yul\":194:195   */\n          dup1\n            /* \"#utility.yul\":187:199   */\n          revert\n            /* \"#utility.yul\":334:411   */\n        tag_10:\n            /* \"#utility.yul\":371:378   */\n          0x00\n            /* \"#utility.yul\":400:405   */\n          dup2\n            /* \"#utility.yul\":389:405   */\n          swap1\n          pop\n            /* \"#utility.yul\":334:411   */\n          swap2\n          swap1\n          pop\n          jump\t// out\n            /* \"#utility.yul\":417:539   */\n        tag_11:\n            /* \"#utility.yul\":490:514   */\n          tag_23\n            /* \"#utility.yul\":508:513   */\n          dup2\n            /* \"#utility.yul\":490:514   */\n          tag_10\n          jump\t// in\n        tag_23:\n            /* \"#utility.yul\":483:488   */\n          dup2\n            /* \"#utility.yul\":480:515   */\n          eq\n            /* \"#utility.yul\":470:533   */\n          tag_24\n          jumpi\n            /* \"#utility.yul\":529:530   */\n          0x00\n            /* \"#utility.yul\":526:527   */\n          dup1\n            /* \"#utility.yul\":519:531   */\n          revert\n            /* \"#utility.yul\":470:533   */\n        tag_24:\n            /* \"#utility.yul\":417:539   */\n          pop\n          jump\t// out\n            /* \"#utility.yul\":545:688   */\n        tag_12:\n            /* \"#utility.yul\":602:607   */\n          0x00\n            /* \"#utility.yul\":633:639   */\n          dup2\n            /* \"#utility.yul\":627:640   */\n          mload\n            /* \"#utility.yul\":618:640   */\n          swap1\n          pop\n            /* \"#utility.yul\":649:682   */\n          tag_26\n            /* \"#utility.yul\":676:681   */\n          dup2\n            /* \"#utility.yul\":649:682   */\n          tag_11\n          jump\t// in\n        tag_26:\n            /* \"#utility.yul\":545:688   */\n          swap3\n          swap2\n          pop\n          pop\n          jump\t// out\n            /* \"#utility.yul\":694:820   */\n        tag_13:\n            /* \"#utility.yul\":731:738   */\n          0x00\n            /* \"#utility.yul\":771:813   */\n          0xffffffffffffffffffffffffffffffffffffffff\n            /* \"#utility.yul\":764:769   */\n          dup3\n            /* \"#utility.yul\":760:814   */\n          and\n            /* \"#utility.yul\":749:814   */\n          swap1\n          pop\n            /* \"#utility.yul\":694:820   */\n          swap2\n          swap1\n          pop\n          jump\t// out\n            /* \"#utility.yul\":826:922   */\n        tag_14:\n            /* \"#utility.yul\":863:870   */\n          0x00\n            /* \"#utility.yul\":892:916   */\n          tag_29\n            /* \"#utility.yul\":910:915   */\n          dup3\n            /* \"#utility.yul\":892:916   */\n          tag_13\n          jump\t// in\n        tag_29:\n            /* \"#utility.yul\":881:916   */\n          swap1\n          pop\n            /* \"#utility.yul\":826:922   */\n          swap2\n          swap1\n          pop\n          jump\t// out\n            /* \"#utility.yul\":928:1050   */\n        tag_15:\n            /* \"#utility.yul\":1001:1025   */\n          tag_31\n            /* \"#utility.yul\":1019:1024   */\n          dup2\n            /* \"#utility.yul\":1001:1025   */\n          tag_14\n          jump\t// in\n        tag_31:\n            /* \"#utility.yul\":994:999   */\n          dup2\n            /* \"#utility.yul\":991:1026   */\n          eq\n            /* \"#utility.yul\":981:1044   */\n          tag_32\n          jumpi\n            /* \"#utility.yul\":1040:1041   */\n          0x00\n            /* \"#utility.yul\":1037:1038   */\n          dup1\n            /* \"#utility.yul\":1030:1042   */\n          revert\n            /* \"#utility.yul\":981:1044   */\n        tag_32:\n            /* \"#utility.yul\":928:1050   */\n          pop\n          jump\t// out\n            /* \"#utility.yul\":1056:1199   */\n        tag_16:\n            /* \"#utility.yul\":1113:1118   */\n          0x00\n            /* \"#utility.yul\":1144:1150   */\n          dup2\n            /* \"#utility.yul\":1138:1151   */\n          mload\n            /* \"#utility.yul\":1129:1151   */\n          swap1\n          pop\n            /* \"#utility.yul\":1160:1193   */\n          tag_34\n            /* \"#utility.yul\":1187:1192   */\n          dup2\n            /* \"#utility.yul\":1160:1193   */\n          tag_15\n          jump\t// in\n        tag_34:\n            /* \"#utility.yul\":1056:1199   */\n          swap3\n          swap2\n          pop\n          pop\n          jump\t// out\n            /* \"#utility.yul\":1205:1712   */\n        tag_3:\n            /* \"#utility.yul\":1284:1290   */\n          0x00\n            /* \"#utility.yul\":1292:1298   */\n          dup1\n            /* \"#utility.yul\":1341:1343   */\n          0x40\n            /* \"#utility.yul\":1329:1338   */\n          dup4\n            /* \"#utility.yul\":1320:1327   */\n          dup6\n            /* \"#utility.yul\":1316:1339   */\n          sub\n            /* \"#utility.yul\":1312:1344   */\n          slt\n            /* \"#utility.yul\":1309:1428   */\n          iszero\n          tag_36\n          jumpi\n            /* \"#utility.yul\":1347:1426   */\n          tag_37\n          tag_8\n          jump\t// in\n        tag_37:\n            /* \"#utility.yul\":1309:1428   */\n        tag_36:\n            /* \"#utility.yul\":1467:1468   */\n          0x00\n            /* \"#utility.yul\":1492:1556   */\n          tag_38\n            /* \"#utility.yul\":1548:1555   */\n          dup6\n            /* \"#utility.yul\":1539:1545   */\n          dup3\n            /* \"#utility.yul\":1528:1537   */\n          dup7\n            /* \"#utility.yul\":1524:1546   */\n          add\n            /* \"#utility.yul\":1492:1556   */\n          tag_12\n          jump\t// in\n        tag_38:\n            /* \"#utility.yul\":1482:1556   */\n          swap3\n          pop\n            /* \"#utility.yul\":1438:1566   */\n          pop\n            /* \"#utility.yul\":1605:1607   */\n          0x20\n            /* \"#utility.yul\":1631:1695   */\n          tag_39\n            /* \"#utility.yul\":1687:1694   */\n          dup6\n            /* \"#utility.yul\":1678:1684   */\n          dup3\n            /* \"#utility.yul\":1667:1676   */\n          dup7\n            /* \"#utility.yul\":1663:1685   */\n          add\n            /* \"#utility.yul\":1631:1695   */\n          tag_16\n          jump\t// in\n        tag_39:\n            /* \"#utility.yul\":1621:1695   */\n          swap2\n          pop\n            /* \"#utility.yul\":1576:1705   */\n          pop\n            /* \"#utility.yul\":1205:1712   */\n          swap3\n          pop\n          swap3\n          swap1\n          pop\n          jump\t// out\n            /* \"Campaign.sol\":431:3061  contract Campaign {... */\n        tag_6:\n          dataSize(sub_0)\n          dup1\n          dataOffset(sub_0)\n          0x00\n          codecopy\n          0x00\n          return\n        stop\n\n        sub_0: assembly {\n                /* \"Campaign.sol\":431:3061  contract Campaign {... */\n              mstore(0x40, 0x80)\n              jumpi(tag_1, lt(calldatasize, 0x04))\n              shr(0xe0, calldataload(0x00))\n              dup1\n              0x81d12c58\n              gt\n              tag_14\n              jumpi\n              dup1\n              0x81d12c58\n              eq\n              tag_8\n              jumpi\n              dup1\n              0x8a9cfd55\n              eq\n              tag_9\n              jumpi\n              dup1\n              0x937e09b1\n              eq\n              tag_10\n              jumpi\n              dup1\n              0xd7bb99ba\n              eq\n              tag_11\n              jumpi\n              dup1\n              0xd7d1bbdb\n              eq\n              tag_12\n              jumpi\n              dup1\n              0xe9f146a3\n              eq\n              tag_13\n              jumpi\n              jump(tag_1)\n            tag_14:\n              dup1\n              0x03441006\n              eq\n              tag_2\n              jumpi\n              dup1\n              0x34b66460\n              eq\n              tag_3\n              jumpi\n              dup1\n              0x3fad1834\n              eq\n              tag_4\n              jumpi\n              dup1\n              0x4051ddac\n              eq\n              tag_5\n              jumpi\n              dup1\n              0x481c6a75\n              eq\n              tag_6\n              jumpi\n              dup1\n              0x56c31637\n              eq\n              tag_7\n              jumpi\n            tag_1:\n              0x00\n              dup1\n              revert\n                /* \"Campaign.sol\":2226:2530  function finalizeRequest(uint index) public onlyContractOwner {... */\n            tag_2:\n              callvalue\n              dup1\n              iszero\n              tag_15\n              jumpi\n              0x00\n              dup1\n              revert\n            tag_15:\n              pop\n              tag_16\n              0x04\n              dup1\n              calldatasize\n              sub\n              dup2\n              add\n              swap1\n              tag_17\n              swap2\n              swap1\n              tag_18\n              jump\t// in\n            tag_17:\n              tag_19\n              jump\t// in\n            tag_16:\n              stop\n                /* \"Campaign.sol\":781:825  mapping(address => bool) public contributers */\n            tag_3:\n              callvalue\n              dup1\n              iszero\n              tag_20\n              jumpi\n              0x00\n              dup1\n              revert\n            tag_20:\n              pop\n              tag_21\n              0x04\n              dup1\n              calldatasize\n              sub\n              dup2\n              add\n              swap1\n              tag_22\n              swap2\n              swap1\n              tag_23\n              jump\t// in\n            tag_22:\n              tag_24\n              jump\t// in\n            tag_21:\n              mload(0x40)\n              tag_25\n              swap2\n              swap1\n              tag_26\n              jump\t// in\n            tag_25:\n              mload(0x40)\n              dup1\n              swap2\n              sub\n              swap1\n              return\n                /* \"Campaign.sol\":2970:3059  function getRequestCount() public view returns(uint) {... */\n            tag_4:\n              callvalue\n              dup1\n              iszero\n              tag_27\n              jumpi\n              0x00\n              dup1\n              revert\n            tag_27:\n              pop\n              tag_28\n              tag_29\n              jump\t// in\n            tag_28:\n              mload(0x40)\n              tag_30\n              swap2\n              swap1\n              tag_31\n              jump\t// in\n            tag_30:\n              mload(0x40)\n              dup1\n              swap2\n              sub\n              swap1\n              return\n                /* \"Campaign.sol\":2711:2964  function getSummary() public view returns (uint, uint,uint,uint,address) {... */\n            tag_5:\n              callvalue\n              dup1\n              iszero\n              tag_32\n              jumpi\n              0x00\n              dup1\n              revert\n            tag_32:\n              pop\n              tag_33\n              tag_34\n              jump\t// in\n            tag_33:\n              mload(0x40)\n              tag_35\n              swap6\n              swap5\n              swap4\n              swap3\n              swap2\n              swap1\n              tag_36\n              jump\t// in\n            tag_35:\n              mload(0x40)\n              dup1\n              swap2\n              sub\n              swap1\n              return\n                /* \"Campaign.sol\":716:738  address public manager */\n            tag_6:\n              callvalue\n              dup1\n              iszero\n              tag_37\n              jumpi\n              0x00\n              dup1\n              revert\n            tag_37:\n              pop\n              tag_38\n              tag_39\n              jump\t// in\n            tag_38:\n              mload(0x40)\n              tag_40\n              swap2\n              swap1\n              tag_41\n              jump\t// in\n            tag_40:\n              mload(0x40)\n              dup1\n              swap2\n              sub\n              swap1\n              return\n                /* \"Campaign.sol\":2535:2705  function isApproved(uint i, address approver) public view returns(bool) {... */\n            tag_7:\n              callvalue\n              dup1\n              iszero\n              tag_42\n              jumpi\n              0x00\n              dup1\n              revert\n            tag_42:\n              pop\n              tag_43\n              0x04\n              dup1\n              calldatasize\n              sub\n              dup2\n              add\n              swap1\n              tag_44\n              swap2\n              swap1\n              tag_45\n              jump\t// in\n            tag_44:\n              tag_46\n              jump\t// in\n            tag_43:\n              mload(0x40)\n              tag_47\n              swap2\n              swap1\n              tag_26\n              jump\t// in\n            tag_47:\n              mload(0x40)\n              dup1\n              swap2\n              sub\n              swap1\n              return\n                /* \"Campaign.sol\":831:871  mapping(uint => Request) public requests */\n            tag_8:\n              callvalue\n              dup1\n              iszero\n              tag_48\n              jumpi\n              0x00\n              dup1\n              revert\n            tag_48:\n              pop\n              tag_49\n              0x04\n              dup1\n              calldatasize\n              sub\n              dup2\n              add\n              swap1\n              tag_50\n              swap2\n              swap1\n              tag_18\n              jump\t// in\n            tag_50:\n              tag_51\n              jump\t// in\n            tag_49:\n              mload(0x40)\n              tag_52\n              swap6\n              swap5\n              swap4\n              swap3\n              swap2\n              swap1\n              tag_53\n              jump\t// in\n            tag_52:\n              mload(0x40)\n              dup1\n              swap2\n              sub\n              swap1\n              return\n                /* \"Campaign.sol\":1522:1964  function createRequest(string memory description, uint value, address payable recipient) public onlyContractOwner {... */\n            tag_9:\n              callvalue\n              dup1\n              iszero\n              tag_54\n              jumpi\n              0x00\n              dup1\n              revert\n            tag_54:\n              pop\n              tag_55\n              0x04\n              dup1\n              calldatasize\n              sub\n              dup2\n              add\n              swap1\n              tag_56\n              swap2\n              swap1\n              tag_57\n              jump\t// in\n            tag_56:\n              tag_58\n              jump\t// in\n            tag_55:\n              stop\n                /* \"Campaign.sol\":744:775  uint public minimumContribution */\n            tag_10:\n              callvalue\n              dup1\n              iszero\n              tag_59\n              jumpi\n              0x00\n              dup1\n              revert\n            tag_59:\n              pop\n              tag_60\n              tag_61\n              jump\t// in\n            tag_60:\n              mload(0x40)\n              tag_62\n              swap2\n              swap1\n              tag_31\n              jump\t// in\n            tag_62:\n              mload(0x40)\n              dup1\n              swap2\n              sub\n              swap1\n              return\n                /* \"Campaign.sol\":1352:1516  function contribute() public payable {... */\n            tag_11:\n              tag_63\n              tag_64\n              jump\t// in\n            tag_63:\n              stop\n                /* \"Campaign.sol\":1974:2220  function approveRequest(uint index) public onlyContributers {... */\n            tag_12:\n              callvalue\n              dup1\n              iszero\n              tag_65\n              jumpi\n              0x00\n              dup1\n              revert\n            tag_65:\n              pop\n              tag_66\n              0x04\n              dup1\n              calldatasize\n              sub\n              dup2\n              add\n              swap1\n              tag_67\n              swap2\n              swap1\n              tag_18\n              jump\t// in\n            tag_67:\n              tag_68\n              jump\t// in\n            tag_66:\n              stop\n                /* \"Campaign.sol\":877:906  uint public contributersCount */\n            tag_13:\n              callvalue\n              dup1\n              iszero\n              tag_69\n              jumpi\n              0x00\n              dup1\n              revert\n            tag_69:\n              pop\n              tag_70\n              tag_71\n              jump\t// in\n            tag_70:\n              mload(0x40)\n              tag_72\n              swap2\n              swap1\n              tag_31\n              jump\t// in\n            tag_72:\n              mload(0x40)\n              dup1\n              swap2\n              sub\n              swap1\n              return\n                /* \"Campaign.sol\":2226:2530  function finalizeRequest(uint index) public onlyContractOwner {... */\n            tag_19:\n                /* \"Campaign.sol\":1073:1080  manager */\n              0x00\n              dup1\n              sload\n              swap1\n              0x0100\n              exp\n              swap1\n              div\n              0xffffffffffffffffffffffffffffffffffffffff\n              and\n                /* \"Campaign.sol\":1059:1080  msg.sender == manager */\n              0xffffffffffffffffffffffffffffffffffffffff\n              and\n                /* \"Campaign.sol\":1059:1069  msg.sender */\n              caller\n                /* \"Campaign.sol\":1059:1080  msg.sender == manager */\n              0xffffffffffffffffffffffffffffffffffffffff\n              and\n              eq\n                /* \"Campaign.sol\":1051:1081  require(msg.sender == manager) */\n              tag_74\n              jumpi\n              0x00\n              dup1\n              revert\n            tag_74:\n                /* \"Campaign.sol\":2298:2321  Request storage request */\n              0x00\n                /* \"Campaign.sol\":2324:2332  requests */\n              0x03\n                /* \"Campaign.sol\":2324:2339  requests[index] */\n              0x00\n                /* \"Campaign.sol\":2333:2338  index */\n              dup4\n                /* \"Campaign.sol\":2324:2339  requests[index] */\n              dup2\n              mstore\n              0x20\n              add\n              swap1\n              dup2\n              mstore\n              0x20\n              add\n              0x00\n              keccak256\n                /* \"Campaign.sol\":2298:2339  Request storage request = requests[index] */\n              swap1\n              pop\n                /* \"Campaign.sol\":2358:2365  request */\n              dup1\n                /* \"Campaign.sol\":2358:2374  request.complete */\n              0x02\n              add\n              0x14\n              swap1\n              sload\n              swap1\n              0x0100\n              exp\n              swap1\n              div\n              0xff\n              and\n                /* \"Campaign.sol\":2357:2374  !request.complete */\n              iszero\n                /* \"Campaign.sol\":2349:2375  require(!request.complete) */\n              tag_76\n              jumpi\n              0x00\n              dup1\n              revert\n            tag_76:\n                /* \"Campaign.sol\":2437:2438  2 */\n              0x02\n                /* \"Campaign.sol\":2417:2434  contributersCount */\n              sload(0x04)\n                /* \"Campaign.sol\":2417:2438  contributersCount / 2 */\n              tag_77\n              swap2\n              swap1\n              tag_78\n              jump\t// in\n            tag_77:\n                /* \"Campaign.sol\":2393:2400  request */\n              dup2\n                /* \"Campaign.sol\":2393:2414  request.approvalCount */\n              0x03\n              add\n              sload\n                /* \"Campaign.sol\":2393:2438  request.approvalCount > contributersCount / 2 */\n              gt\n                /* \"Campaign.sol\":2385:2439  require(request.approvalCount > contributersCount / 2) */\n              tag_79\n              jumpi\n              0x00\n              dup1\n              revert\n            tag_79:\n                /* \"Campaign.sol\":2449:2456  request */\n              dup1\n                /* \"Campaign.sol\":2449:2466  request.recipient */\n              0x02\n              add\n              0x00\n              swap1\n              sload\n              swap1\n              0x0100\n              exp\n              swap1\n              div\n              0xffffffffffffffffffffffffffffffffffffffff\n              and\n                /* \"Campaign.sol\":2449:2475  request.recipient.transfer */\n              0xffffffffffffffffffffffffffffffffffffffff\n              and\n                /* \"Campaign.sol\":2449:2490  request.recipient.transfer(request.value) */\n              0x08fc\n                /* \"Campaign.sol\":2476:2483  request */\n              dup3\n                /* \"Campaign.sol\":2476:2489  request.value */\n              0x01\n              add\n              sload\n                /* \"Campaign.sol\":2449:2490  request.recipient.transfer(request.value) */\n              swap1\n              dup2\n              iszero\n              mul\n              swap1\n              mload(0x40)\n              0x00\n              mload(0x40)\n              dup1\n              dup4\n              sub\n              dup2\n              dup6\n              dup9\n              dup9\n              call\n              swap4\n              pop\n              pop\n              pop\n              pop\n              iszero\n              dup1\n              iszero\n              tag_81\n              jumpi\n              returndatasize\n              0x00\n              dup1\n              returndatacopy\n              revert(0x00, returndatasize)\n            tag_81:\n              pop\n                /* \"Campaign.sol\":2519:2523  true */\n              0x01\n                /* \"Campaign.sol\":2500:2507  request */\n              dup2\n                /* \"Campaign.sol\":2500:2516  request.complete */\n              0x02\n              add\n              0x14\n                /* \"Campaign.sol\":2500:2523  request.complete = true */\n              0x0100\n              exp\n              dup2\n              sload\n              dup2\n              0xff\n              mul\n              not\n              and\n              swap1\n              dup4\n              iszero\n              iszero\n              mul\n              or\n              swap1\n              sstore\n              pop\n                /* \"Campaign.sol\":2288:2530  {... */\n              pop\n                /* \"Campaign.sol\":2226:2530  function finalizeRequest(uint index) public onlyContractOwner {... */\n              pop\n              jump\t// out\n                /* \"Campaign.sol\":781:825  mapping(address => bool) public contributers */\n            tag_24:\n              mstore(0x20, 0x02)\n              dup1\n              0x00\n              mstore\n              keccak256(0x00, 0x40)\n              0x00\n              swap2\n              pop\n              sload\n              swap1\n              0x0100\n              exp\n              swap1\n              div\n              0xff\n              and\n              dup2\n              jump\t// out\n                /* \"Campaign.sol\":2970:3059  function getRequestCount() public view returns(uint) {... */\n            tag_29:\n                /* \"Campaign.sol\":3017:3021  uint */\n              0x00\n                /* \"Campaign.sol\":3040:3052  requestCount */\n              sload(0x05)\n                /* \"Campaign.sol\":3033:3052  return requestCount */\n              swap1\n              pop\n                /* \"Campaign.sol\":2970:3059  function getRequestCount() public view returns(uint) {... */\n              swap1\n              jump\t// out\n                /* \"Campaign.sol\":2711:2964  function getSummary() public view returns (uint, uint,uint,uint,address) {... */\n            tag_34:\n                /* \"Campaign.sol\":2754:2758  uint */\n              0x00\n                /* \"Campaign.sol\":2760:2764  uint */\n              dup1\n                /* \"Campaign.sol\":2765:2769  uint */\n              0x00\n                /* \"Campaign.sol\":2770:2774  uint */\n              dup1\n                /* \"Campaign.sol\":2775:2782  address */\n              0x00\n                /* \"Campaign.sol\":2815:2834  minimumContribution */\n              sload(0x01)\n                /* \"Campaign.sol\":2848:2869  address(this).balance */\n              selfbalance\n                /* \"Campaign.sol\":2883:2895  requestCount */\n              sload(0x05)\n                /* \"Campaign.sol\":2909:2926  contributersCount */\n              sload(0x04)\n                /* \"Campaign.sol\":2940:2947  manager */\n              0x00\n              dup1\n              sload\n              swap1\n              0x0100\n              exp\n              swap1\n              div\n              0xffffffffffffffffffffffffffffffffffffffff\n              and\n                /* \"Campaign.sol\":2794:2957  return (... */\n              swap5\n              pop\n              swap5\n              pop\n              swap5\n              pop\n              swap5\n              pop\n              swap5\n              pop\n                /* \"Campaign.sol\":2711:2964  function getSummary() public view returns (uint, uint,uint,uint,address) {... */\n              swap1\n              swap2\n              swap3\n              swap4\n              swap5\n              jump\t// out\n                /* \"Campaign.sol\":716:738  address public manager */\n            tag_39:\n              0x00\n              dup1\n              sload\n              swap1\n              0x0100\n              exp\n              swap1\n              div\n              0xffffffffffffffffffffffffffffffffffffffff\n              and\n              dup2\n              jump\t// out\n                /* \"Campaign.sol\":2535:2705  function isApproved(uint i, address approver) public view returns(bool) {... */\n            tag_46:\n                /* \"Campaign.sol\":2601:2605  bool */\n              0x00\n                /* \"Campaign.sol\":2617:2640  Request storage request */\n              dup1\n                /* \"Campaign.sol\":2643:2651  requests */\n              0x03\n                /* \"Campaign.sol\":2643:2654  requests[i] */\n              0x00\n                /* \"Campaign.sol\":2652:2653  i */\n              dup6\n                /* \"Campaign.sol\":2643:2654  requests[i] */\n              dup2\n              mstore\n              0x20\n              add\n              swap1\n              dup2\n              mstore\n              0x20\n              add\n              0x00\n              keccak256\n                /* \"Campaign.sol\":2617:2654  Request storage request = requests[i] */\n              swap1\n              pop\n                /* \"Campaign.sol\":2671:2678  request */\n              dup1\n                /* \"Campaign.sol\":2671:2688  request.approvals */\n              0x04\n              add\n                /* \"Campaign.sol\":2671:2698  request.approvals[approver] */\n              0x00\n                /* \"Campaign.sol\":2689:2697  approver */\n              dup5\n                /* \"Campaign.sol\":2671:2698  request.approvals[approver] */\n              0xffffffffffffffffffffffffffffffffffffffff\n              and\n              0xffffffffffffffffffffffffffffffffffffffff\n              and\n              dup2\n              mstore\n              0x20\n              add\n              swap1\n              dup2\n              mstore\n              0x20\n              add\n              0x00\n              keccak256\n              0x00\n              swap1\n              sload\n              swap1\n              0x0100\n              exp\n              swap1\n              div\n              0xff\n              and\n                /* \"Campaign.sol\":2664:2698  return request.approvals[approver] */\n              swap2\n              pop\n              pop\n                /* \"Campaign.sol\":2535:2705  function isApproved(uint i, address approver) public view returns(bool) {... */\n              swap3\n              swap2\n              pop\n              pop\n              jump\t// out\n                /* \"Campaign.sol\":831:871  mapping(uint => Request) public requests */\n            tag_51:\n              mstore(0x20, 0x03)\n              dup1\n              0x00\n              mstore\n              keccak256(0x00, 0x40)\n              0x00\n              swap2\n              pop\n              swap1\n              pop\n              dup1\n              0x00\n              add\n              dup1\n              sload\n              tag_85\n              swap1\n              tag_86\n              jump\t// in\n            tag_85:\n              dup1\n              0x1f\n              add\n              0x20\n              dup1\n              swap2\n              div\n              mul\n              0x20\n              add\n              mload(0x40)\n              swap1\n              dup2\n              add\n              0x40\n              mstore\n              dup1\n              swap3\n              swap2\n              swap1\n              dup2\n              dup2\n              mstore\n              0x20\n              add\n              dup3\n              dup1\n              sload\n              tag_87\n              swap1\n              tag_86\n              jump\t// in\n            tag_87:\n              dup1\n              iszero\n              tag_88\n              jumpi\n              dup1\n              0x1f\n              lt\n              tag_89\n              jumpi\n              0x0100\n              dup1\n              dup4\n              sload\n              div\n              mul\n              dup4\n              mstore\n              swap2\n              0x20\n              add\n              swap2\n              jump(tag_88)\n            tag_89:\n              dup3\n              add\n              swap2\n              swap1\n              0x00\n              mstore\n              keccak256(0x00, 0x20)\n              swap1\n            tag_90:\n              dup2\n              sload\n              dup2\n              mstore\n              swap1\n              0x01\n              add\n              swap1\n              0x20\n              add\n              dup1\n              dup4\n              gt\n              tag_90\n              jumpi\n              dup3\n              swap1\n              sub\n              0x1f\n              and\n              dup3\n              add\n              swap2\n            tag_88:\n              pop\n              pop\n              pop\n              pop\n              pop\n              swap1\n              dup1\n              0x01\n              add\n              sload\n              swap1\n              dup1\n              0x02\n              add\n              0x00\n              swap1\n              sload\n              swap1\n              0x0100\n              exp\n              swap1\n              div\n              0xffffffffffffffffffffffffffffffffffffffff\n              and\n              swap1\n              dup1\n              0x02\n              add\n              0x14\n              swap1\n              sload\n              swap1\n              0x0100\n              exp\n              swap1\n              div\n              0xff\n              and\n              swap1\n              dup1\n              0x03\n              add\n              sload\n              swap1\n              pop\n              dup6\n              jump\t// out\n                /* \"Campaign.sol\":1522:1964  function createRequest(string memory description, uint value, address payable recipient) public onlyContractOwner {... */\n            tag_58:\n                /* \"Campaign.sol\":1073:1080  manager */\n              0x00\n              dup1\n              sload\n              swap1\n              0x0100\n              exp\n              swap1\n              div\n              0xffffffffffffffffffffffffffffffffffffffff\n              and\n                /* \"Campaign.sol\":1059:1080  msg.sender == manager */\n              0xffffffffffffffffffffffffffffffffffffffff\n              and\n                /* \"Campaign.sol\":1059:1069  msg.sender */\n              caller\n                /* \"Campaign.sol\":1059:1080  msg.sender == manager */\n              0xffffffffffffffffffffffffffffffffffffffff\n              and\n              eq\n                /* \"Campaign.sol\":1051:1081  require(msg.sender == manager) */\n              tag_92\n              jumpi\n              0x00\n              dup1\n              revert\n            tag_92:\n                /* \"Campaign.sol\":1646:1669  Request storage request */\n              0x00\n                /* \"Campaign.sol\":1672:1680  requests */\n              0x03\n                /* \"Campaign.sol\":1672:1696  requests[requestIndex++] */\n              0x00\n                /* \"Campaign.sol\":1681:1693  requestIndex */\n              0x06\n              0x00\n                /* \"Campaign.sol\":1681:1695  requestIndex++ */\n              dup2\n              sload\n              dup1\n              swap3\n              swap2\n              swap1\n              tag_94\n              swap1\n              tag_95\n              jump\t// in\n            tag_94:\n              swap2\n              swap1\n              pop\n              sstore\n                /* \"Campaign.sol\":1672:1696  requests[requestIndex++] */\n              dup2\n              mstore\n              0x20\n              add\n              swap1\n              dup2\n              mstore\n              0x20\n              add\n              0x00\n              keccak256\n                /* \"Campaign.sol\":1646:1696  Request storage request = requests[requestIndex++] */\n              swap1\n              pop\n                /* \"Campaign.sol\":1728:1739  description */\n              dup4\n                /* \"Campaign.sol\":1706:1713  request */\n              dup2\n                /* \"Campaign.sol\":1706:1725  request.description */\n              0x00\n              add\n                /* \"Campaign.sol\":1706:1739  request.description = description */\n              swap1\n              dup1\n              mload\n              swap1\n              0x20\n              add\n              swap1\n              tag_96\n              swap3\n              swap2\n              swap1\n              tag_97\n              jump\t// in\n            tag_96:\n              pop\n                /* \"Campaign.sol\":1765:1770  value */\n              dup3\n                /* \"Campaign.sol\":1749:1756  request */\n              dup2\n                /* \"Campaign.sol\":1749:1762  request.value */\n              0x01\n              add\n                /* \"Campaign.sol\":1749:1770  request.value = value */\n              dup2\n              swap1\n              sstore\n              pop\n                /* \"Campaign.sol\":1800:1809  recipient */\n              dup2\n                /* \"Campaign.sol\":1780:1787  request */\n              dup2\n                /* \"Campaign.sol\":1780:1797  request.recipient */\n              0x02\n              add\n              0x00\n                /* \"Campaign.sol\":1780:1809  request.recipient = recipient */\n              0x0100\n              exp\n              dup2\n              sload\n              dup2\n              0xffffffffffffffffffffffffffffffffffffffff\n              mul\n              not\n              and\n              swap1\n              dup4\n              0xffffffffffffffffffffffffffffffffffffffff\n              and\n              mul\n              or\n              swap1\n              sstore\n              pop\n                /* \"Campaign.sol\":1838:1843  false */\n              0x00\n                /* \"Campaign.sol\":1819:1826  request */\n              dup2\n                /* \"Campaign.sol\":1819:1835  request.complete */\n              0x02\n              add\n              0x14\n                /* \"Campaign.sol\":1819:1843  request.complete = false */\n              0x0100\n              exp\n              dup2\n              sload\n              dup2\n              0xff\n              mul\n              not\n              and\n              swap1\n              dup4\n              iszero\n              iszero\n              mul\n              or\n              swap1\n              sstore\n              pop\n                /* \"Campaign.sol\":1877:1878  0 */\n              0x00\n                /* \"Campaign.sol\":1853:1860  request */\n              dup2\n                /* \"Campaign.sol\":1853:1874  request.approvalCount */\n              0x03\n              add\n                /* \"Campaign.sol\":1853:1878  request.approvalCount = 0 */\n              dup2\n              swap1\n              sstore\n              pop\n                /* \"Campaign.sol\":1888:1900  requestCount */\n              0x05\n              0x00\n                /* \"Campaign.sol\":1888:1902  requestCount++ */\n              dup2\n              sload\n              dup1\n              swap3\n              swap2\n              swap1\n              tag_98\n              swap1\n              tag_95\n              jump\t// in\n            tag_98:\n              swap2\n              swap1\n              pop\n              sstore\n              pop\n                /* \"Campaign.sol\":1917:1957  CreatedRequest(msg.sender, requestIndex) */\n              0x859bc031f5d72b599e7f226e583d1c75987c71977ec43a20efef794391f8e938\n                /* \"Campaign.sol\":1932:1942  msg.sender */\n              caller\n                /* \"Campaign.sol\":1944:1956  requestIndex */\n              sload(0x06)\n                /* \"Campaign.sol\":1917:1957  CreatedRequest(msg.sender, requestIndex) */\n              mload(0x40)\n              tag_99\n              swap3\n              swap2\n              swap1\n              tag_100\n              jump\t// in\n            tag_99:\n              mload(0x40)\n              dup1\n              swap2\n              sub\n              swap1\n              log1\n                /* \"Campaign.sol\":1636:1964  {... */\n              pop\n                /* \"Campaign.sol\":1522:1964  function createRequest(string memory description, uint value, address payable recipient) public onlyContractOwner {... */\n              pop\n              pop\n              pop\n              jump\t// out\n                /* \"Campaign.sol\":744:775  uint public minimumContribution */\n            tag_61:\n              sload(0x01)\n              dup2\n              jump\t// out\n                /* \"Campaign.sol\":1352:1516  function contribute() public payable {... */\n            tag_64:\n                /* \"Campaign.sol\":1419:1438  minimumContribution */\n              sload(0x01)\n                /* \"Campaign.sol\":1407:1416  msg.value */\n              callvalue\n                /* \"Campaign.sol\":1407:1438  msg.value > minimumContribution */\n              gt\n                /* \"Campaign.sol\":1399:1439  require(msg.value > minimumContribution) */\n              tag_102\n              jumpi\n              0x00\n              dup1\n              revert\n            tag_102:\n                /* \"Campaign.sol\":1476:1480  true */\n              0x01\n                /* \"Campaign.sol\":1449:1461  contributers */\n              0x02\n                /* \"Campaign.sol\":1449:1473  contributers[msg.sender] */\n              0x00\n                /* \"Campaign.sol\":1462:1472  msg.sender */\n              caller\n                /* \"Campaign.sol\":1449:1473  contributers[msg.sender] */\n              0xffffffffffffffffffffffffffffffffffffffff\n              and\n              0xffffffffffffffffffffffffffffffffffffffff\n              and\n              dup2\n              mstore\n              0x20\n              add\n              swap1\n              dup2\n              mstore\n              0x20\n              add\n              0x00\n              keccak256\n              0x00\n                /* \"Campaign.sol\":1449:1480  contributers[msg.sender] = true */\n              0x0100\n              exp\n              dup2\n              sload\n              dup2\n              0xff\n              mul\n              not\n              and\n              swap1\n              dup4\n              iszero\n              iszero\n              mul\n              or\n              swap1\n              sstore\n              pop\n                /* \"Campaign.sol\":1490:1507  contributersCount */\n              0x04\n              0x00\n                /* \"Campaign.sol\":1490:1509  contributersCount++ */\n              dup2\n              sload\n              dup1\n              swap3\n              swap2\n              swap1\n              tag_103\n              swap1\n              tag_95\n              jump\t// in\n            tag_103:\n              swap2\n              swap1\n              pop\n              sstore\n              pop\n                /* \"Campaign.sol\":1352:1516  function contribute() public payable {... */\n              jump\t// out\n                /* \"Campaign.sol\":1974:2220  function approveRequest(uint index) public onlyContributers {... */\n            tag_68:\n                /* \"Campaign.sol\":1155:1167  contributers */\n              0x02\n                /* \"Campaign.sol\":1155:1179  contributers[msg.sender] */\n              0x00\n                /* \"Campaign.sol\":1168:1178  msg.sender */\n              caller\n                /* \"Campaign.sol\":1155:1179  contributers[msg.sender] */\n              0xffffffffffffffffffffffffffffffffffffffff\n              and\n              0xffffffffffffffffffffffffffffffffffffffff\n              and\n              dup2\n              mstore\n              0x20\n              add\n              swap1\n              dup2\n              mstore\n              0x20\n              add\n              0x00\n              keccak256\n              0x00\n              swap1\n              sload\n              swap1\n              0x0100\n              exp\n              swap1\n              div\n              0xff\n              and\n                /* \"Campaign.sol\":1147:1180  require(contributers[msg.sender]) */\n              tag_105\n              jumpi\n              0x00\n              dup1\n              revert\n            tag_105:\n                /* \"Campaign.sol\":2044:2067  Request storage request */\n              0x00\n                /* \"Campaign.sol\":2070:2078  requests */\n              0x03\n                /* \"Campaign.sol\":2070:2085  requests[index] */\n              0x00\n                /* \"Campaign.sol\":2079:2084  index */\n              dup4\n                /* \"Campaign.sol\":2070:2085  requests[index] */\n              dup2\n              mstore\n              0x20\n              add\n              swap1\n              dup2\n              mstore\n              0x20\n              add\n              0x00\n              keccak256\n                /* \"Campaign.sol\":2044:2085  Request storage request = requests[index] */\n              swap1\n              pop\n                /* \"Campaign.sol\":2104:2111  request */\n              dup1\n                /* \"Campaign.sol\":2104:2121  request.approvals */\n              0x04\n              add\n                /* \"Campaign.sol\":2104:2133  request.approvals[msg.sender] */\n              0x00\n                /* \"Campaign.sol\":2122:2132  msg.sender */\n              caller\n                /* \"Campaign.sol\":2104:2133  request.approvals[msg.sender] */\n              0xffffffffffffffffffffffffffffffffffffffff\n              and\n              0xffffffffffffffffffffffffffffffffffffffff\n              and\n              dup2\n              mstore\n              0x20\n              add\n              swap1\n              dup2\n              mstore\n              0x20\n              add\n              0x00\n              keccak256\n              0x00\n              swap1\n              sload\n              swap1\n              0x0100\n              exp\n              swap1\n              div\n              0xff\n              and\n                /* \"Campaign.sol\":2103:2133  !request.approvals[msg.sender] */\n              iszero\n                /* \"Campaign.sol\":2095:2134  require(!request.approvals[msg.sender]) */\n              tag_107\n              jumpi\n              0x00\n              dup1\n              revert\n            tag_107:\n                /* \"Campaign.sol\":2176:2180  true */\n              0x01\n                /* \"Campaign.sol\":2144:2151  request */\n              dup2\n                /* \"Campaign.sol\":2144:2161  request.approvals */\n              0x04\n              add\n                /* \"Campaign.sol\":2144:2173  request.approvals[msg.sender] */\n              0x00\n                /* \"Campaign.sol\":2162:2172  msg.sender */\n              caller\n                /* \"Campaign.sol\":2144:2173  request.approvals[msg.sender] */\n              0xffffffffffffffffffffffffffffffffffffffff\n              and\n              0xffffffffffffffffffffffffffffffffffffffff\n              and\n              dup2\n              mstore\n              0x20\n              add\n              swap1\n              dup2\n              mstore\n              0x20\n              add\n              0x00\n              keccak256\n              0x00\n                /* \"Campaign.sol\":2144:2180  request.approvals[msg.sender] = true */\n              0x0100\n              exp\n              dup2\n              sload\n              dup2\n              0xff\n              mul\n              not\n              and\n              swap1\n              dup4\n              iszero\n              iszero\n              mul\n              or\n              swap1\n              sstore\n              pop\n                /* \"Campaign.sol\":2190:2197  request */\n              dup1\n                /* \"Campaign.sol\":2190:2211  request.approvalCount */\n              0x03\n              add\n              0x00\n                /* \"Campaign.sol\":2190:2213  request.approvalCount++ */\n              dup2\n              sload\n              dup1\n              swap3\n              swap2\n              swap1\n              tag_108\n              swap1\n              tag_95\n              jump\t// in\n            tag_108:\n              swap2\n              swap1\n              pop\n              sstore\n              pop\n                /* \"Campaign.sol\":2034:2220  {... */\n              pop\n                /* \"Campaign.sol\":1974:2220  function approveRequest(uint index) public onlyContributers {... */\n              pop\n              jump\t// out\n                /* \"Campaign.sol\":877:906  uint public contributersCount */\n            tag_71:\n              sload(0x04)\n              dup2\n              jump\t// out\n            tag_97:\n              dup3\n              dup1\n              sload\n              tag_109\n              swap1\n              tag_86\n              jump\t// in\n            tag_109:\n              swap1\n              0x00\n              mstore\n              keccak256(0x00, 0x20)\n              swap1\n              0x1f\n              add\n              0x20\n              swap1\n              div\n              dup2\n              add\n              swap3\n              dup3\n              tag_111\n              jumpi\n              0x00\n              dup6\n              sstore\n              jump(tag_110)\n            tag_111:\n              dup3\n              0x1f\n              lt\n              tag_112\n              jumpi\n              dup1\n              mload\n              not(0xff)\n              and\n              dup4\n              dup1\n              add\n              or\n              dup6\n              sstore\n              jump(tag_110)\n            tag_112:\n              dup3\n              dup1\n              add\n              0x01\n              add\n              dup6\n              sstore\n              dup3\n              iszero\n              tag_110\n              jumpi\n              swap2\n              dup3\n              add\n            tag_113:\n              dup3\n              dup2\n              gt\n              iszero\n              tag_114\n              jumpi\n              dup3\n              mload\n              dup3\n              sstore\n              swap2\n              0x20\n              add\n              swap2\n              swap1\n              0x01\n              add\n              swap1\n              jump(tag_113)\n            tag_114:\n            tag_110:\n              pop\n              swap1\n              pop\n              tag_115\n              swap2\n              swap1\n              tag_116\n              jump\t// in\n            tag_115:\n              pop\n              swap1\n              jump\t// out\n            tag_116:\n            tag_117:\n              dup1\n              dup3\n              gt\n              iszero\n              tag_118\n              jumpi\n              0x00\n              dup2\n              0x00\n              swap1\n              sstore\n              pop\n              0x01\n              add\n              jump(tag_117)\n            tag_118:\n              pop\n              swap1\n              jump\t// out\n                /* \"#utility.yul\":7:82   */\n            tag_119:\n                /* \"#utility.yul\":40:46   */\n              0x00\n                /* \"#utility.yul\":73:75   */\n              0x40\n                /* \"#utility.yul\":67:76   */\n              mload\n                /* \"#utility.yul\":57:76   */\n              swap1\n              pop\n                /* \"#utility.yul\":7:82   */\n              swap1\n              jump\t// out\n                /* \"#utility.yul\":88:205   */\n            tag_120:\n                /* \"#utility.yul\":197:198   */\n              0x00\n                /* \"#utility.yul\":194:195   */\n              dup1\n                /* \"#utility.yul\":187:199   */\n              revert\n                /* \"#utility.yul\":211:328   */\n            tag_121:\n                /* \"#utility.yul\":320:321   */\n              0x00\n                /* \"#utility.yul\":317:318   */\n              dup1\n                /* \"#utility.yul\":310:322   */\n              revert\n                /* \"#utility.yul\":334:411   */\n            tag_122:\n                /* \"#utility.yul\":371:378   */\n              0x00\n                /* \"#utility.yul\":400:405   */\n              dup2\n                /* \"#utility.yul\":389:405   */\n              swap1\n              pop\n                /* \"#utility.yul\":334:411   */\n              swap2\n              swap1\n              pop\n              jump\t// out\n                /* \"#utility.yul\":417:539   */\n            tag_123:\n                /* \"#utility.yul\":490:514   */\n              tag_160\n                /* \"#utility.yul\":508:513   */\n              dup2\n                /* \"#utility.yul\":490:514   */\n              tag_122\n              jump\t// in\n            tag_160:\n                /* \"#utility.yul\":483:488   */\n              dup2\n                /* \"#utility.yul\":480:515   */\n              eq\n                /* \"#utility.yul\":470:533   */\n              tag_161\n              jumpi\n                /* \"#utility.yul\":529:530   */\n              0x00\n                /* \"#utility.yul\":526:527   */\n              dup1\n                /* \"#utility.yul\":519:531   */\n              revert\n                /* \"#utility.yul\":470:533   */\n            tag_161:\n                /* \"#utility.yul\":417:539   */\n              pop\n              jump\t// out\n                /* \"#utility.yul\":545:684   */\n            tag_124:\n                /* \"#utility.yul\":591:596   */\n              0x00\n                /* \"#utility.yul\":629:635   */\n              dup2\n                /* \"#utility.yul\":616:636   */\n              calldataload\n                /* \"#utility.yul\":607:636   */\n              swap1\n              pop\n                /* \"#utility.yul\":645:678   */\n              tag_163\n                /* \"#utility.yul\":672:677   */\n              dup2\n                /* \"#utility.yul\":645:678   */\n              tag_123\n              jump\t// in\n            tag_163:\n                /* \"#utility.yul\":545:684   */\n              swap3\n              swap2\n              pop\n              pop\n              jump\t// out\n                /* \"#utility.yul\":690:1019   */\n            tag_18:\n                /* \"#utility.yul\":749:755   */\n              0x00\n                /* \"#utility.yul\":798:800   */\n              0x20\n                /* \"#utility.yul\":786:795   */\n              dup3\n                /* \"#utility.yul\":777:784   */\n              dup5\n                /* \"#utility.yul\":773:796   */\n              sub\n                /* \"#utility.yul\":769:801   */\n              slt\n                /* \"#utility.yul\":766:885   */\n              iszero\n              tag_165\n              jumpi\n                /* \"#utility.yul\":804:883   */\n              tag_166\n              tag_120\n              jump\t// in\n            tag_166:\n                /* \"#utility.yul\":766:885   */\n            tag_165:\n                /* \"#utility.yul\":924:925   */\n              0x00\n                /* \"#utility.yul\":949:1002   */\n              tag_167\n                /* \"#utility.yul\":994:1001   */\n              dup5\n                /* \"#utility.yul\":985:991   */\n              dup3\n                /* \"#utility.yul\":974:983   */\n              dup6\n                /* \"#utility.yul\":970:992   */\n              add\n                /* \"#utility.yul\":949:1002   */\n              tag_124\n              jump\t// in\n            tag_167:\n                /* \"#utility.yul\":939:1002   */\n              swap2\n              pop\n                /* \"#utility.yul\":895:1012   */\n              pop\n                /* \"#utility.yul\":690:1019   */\n              swap3\n              swap2\n              pop\n              pop\n              jump\t// out\n                /* \"#utility.yul\":1025:1151   */\n            tag_125:\n                /* \"#utility.yul\":1062:1069   */\n              0x00\n                /* \"#utility.yul\":1102:1144   */\n              0xffffffffffffffffffffffffffffffffffffffff\n                /* \"#utility.yul\":1095:1100   */\n              dup3\n                /* \"#utility.yul\":1091:1145   */\n              and\n                /* \"#utility.yul\":1080:1145   */\n              swap1\n              pop\n                /* \"#utility.yul\":1025:1151   */\n              swap2\n              swap1\n              pop\n              jump\t// out\n                /* \"#utility.yul\":1157:1253   */\n            tag_126:\n                /* \"#utility.yul\":1194:1201   */\n              0x00\n                /* \"#utility.yul\":1223:1247   */\n              tag_170\n                /* \"#utility.yul\":1241:1246   */\n              dup3\n                /* \"#utility.yul\":1223:1247   */\n              tag_125\n              jump\t// in\n            tag_170:\n                /* \"#utility.yul\":1212:1247   */\n              swap1\n              pop\n                /* \"#utility.yul\":1157:1253   */\n              swap2\n              swap1\n              pop\n              jump\t// out\n                /* \"#utility.yul\":1259:1381   */\n            tag_127:\n                /* \"#utility.yul\":1332:1356   */\n              tag_172\n                /* \"#utility.yul\":1350:1355   */\n              dup2\n                /* \"#utility.yul\":1332:1356   */\n              tag_126\n              jump\t// in\n            tag_172:\n                /* \"#utility.yul\":1325:1330   */\n              dup2\n                /* \"#utility.yul\":1322:1357   */\n              eq\n                /* \"#utility.yul\":1312:1375   */\n              tag_173\n              jumpi\n                /* \"#utility.yul\":1371:1372   */\n              0x00\n                /* \"#utility.yul\":1368:1369   */\n              dup1\n                /* \"#utility.yul\":1361:1373   */\n              revert\n                /* \"#utility.yul\":1312:1375   */\n            tag_173:\n                /* \"#utility.yul\":1259:1381   */\n              pop\n              jump\t// out\n                /* \"#utility.yul\":1387:1526   */\n            tag_128:\n                /* \"#utility.yul\":1433:1438   */\n              0x00\n                /* \"#utility.yul\":1471:1477   */\n              dup2\n                /* \"#utility.yul\":1458:1478   */\n              calldataload\n                /* \"#utility.yul\":1449:1478   */\n              swap1\n              pop\n                /* \"#utility.yul\":1487:1520   */\n              tag_175\n                /* \"#utility.yul\":1514:1519   */\n              dup2\n                /* \"#utility.yul\":1487:1520   */\n              tag_127\n              jump\t// in\n            tag_175:\n                /* \"#utility.yul\":1387:1526   */\n              swap3\n              swap2\n              pop\n              pop\n              jump\t// out\n                /* \"#utility.yul\":1532:1861   */\n            tag_23:\n                /* \"#utility.yul\":1591:1597   */\n              0x00\n                /* \"#utility.yul\":1640:1642   */\n              0x20\n                /* \"#utility.yul\":1628:1637   */\n              dup3\n                /* \"#utility.yul\":1619:1626   */\n              dup5\n                /* \"#utility.yul\":1615:1638   */\n              sub\n                /* \"#utility.yul\":1611:1643   */\n              slt\n                /* \"#utility.yul\":1608:1727   */\n              iszero\n              tag_177\n              jumpi\n                /* \"#utility.yul\":1646:1725   */\n              tag_178\n              tag_120\n              jump\t// in\n            tag_178:\n                /* \"#utility.yul\":1608:1727   */\n            tag_177:\n                /* \"#utility.yul\":1766:1767   */\n              0x00\n                /* \"#utility.yul\":1791:1844   */\n              tag_179\n                /* \"#utility.yul\":1836:1843   */\n              dup5\n                /* \"#utility.yul\":1827:1833   */\n              dup3\n                /* \"#utility.yul\":1816:1825   */\n              dup6\n                /* \"#utility.yul\":1812:1834   */\n              add\n                /* \"#utility.yul\":1791:1844   */\n              tag_128\n              jump\t// in\n            tag_179:\n                /* \"#utility.yul\":1781:1844   */\n              swap2\n              pop\n                /* \"#utility.yul\":1737:1854   */\n              pop\n                /* \"#utility.yul\":1532:1861   */\n              swap3\n              swap2\n              pop\n              pop\n              jump\t// out\n                /* \"#utility.yul\":1867:1957   */\n            tag_129:\n                /* \"#utility.yul\":1901:1908   */\n              0x00\n                /* \"#utility.yul\":1944:1949   */\n              dup2\n                /* \"#utility.yul\":1937:1950   */\n              iszero\n                /* \"#utility.yul\":1930:1951   */\n              iszero\n                /* \"#utility.yul\":1919:1951   */\n              swap1\n              pop\n                /* \"#utility.yul\":1867:1957   */\n              swap2\n              swap1\n              pop\n              jump\t// out\n                /* \"#utility.yul\":1963:2072   */\n            tag_130:\n                /* \"#utility.yul\":2044:2065   */\n              tag_182\n                /* \"#utility.yul\":2059:2064   */\n              dup2\n                /* \"#utility.yul\":2044:2065   */\n              tag_129\n              jump\t// in\n            tag_182:\n                /* \"#utility.yul\":2039:2042   */\n              dup3\n                /* \"#utility.yul\":2032:2066   */\n              mstore\n                /* \"#utility.yul\":1963:2072   */\n              pop\n              pop\n              jump\t// out\n                /* \"#utility.yul\":2078:2288   */\n            tag_26:\n                /* \"#utility.yul\":2165:2169   */\n              0x00\n                /* \"#utility.yul\":2203:2205   */\n              0x20\n                /* \"#utility.yul\":2192:2201   */\n              dup3\n                /* \"#utility.yul\":2188:2206   */\n              add\n                /* \"#utility.yul\":2180:2206   */\n              swap1\n              pop\n                /* \"#utility.yul\":2216:2281   */\n              tag_184\n                /* \"#utility.yul\":2278:2279   */\n              0x00\n                /* \"#utility.yul\":2267:2276   */\n              dup4\n                /* \"#utility.yul\":2263:2280   */\n              add\n                /* \"#utility.yul\":2254:2260   */\n              dup5\n                /* \"#utility.yul\":2216:2281   */\n              tag_130\n              jump\t// in\n            tag_184:\n                /* \"#utility.yul\":2078:2288   */\n              swap3\n              swap2\n              pop\n              pop\n              jump\t// out\n                /* \"#utility.yul\":2294:2412   */\n            tag_131:\n                /* \"#utility.yul\":2381:2405   */\n              tag_186\n                /* \"#utility.yul\":2399:2404   */\n              dup2\n                /* \"#utility.yul\":2381:2405   */\n              tag_122\n              jump\t// in\n            tag_186:\n                /* \"#utility.yul\":2376:2379   */\n              dup3\n                /* \"#utility.yul\":2369:2406   */\n              mstore\n                /* \"#utility.yul\":2294:2412   */\n              pop\n              pop\n              jump\t// out\n                /* \"#utility.yul\":2418:2640   */\n            tag_31:\n                /* \"#utility.yul\":2511:2515   */\n              0x00\n                /* \"#utility.yul\":2549:2551   */\n              0x20\n                /* \"#utility.yul\":2538:2547   */\n              dup3\n                /* \"#utility.yul\":2534:2552   */\n              add\n                /* \"#utility.yul\":2526:2552   */\n              swap1\n              pop\n                /* \"#utility.yul\":2562:2633   */\n              tag_188\n                /* \"#utility.yul\":2630:2631   */\n              0x00\n                /* \"#utility.yul\":2619:2628   */\n              dup4\n                /* \"#utility.yul\":2615:2632   */\n              add\n                /* \"#utility.yul\":2606:2612   */\n              dup5\n                /* \"#utility.yul\":2562:2633   */\n              tag_131\n              jump\t// in\n            tag_188:\n                /* \"#utility.yul\":2418:2640   */\n              swap3\n              swap2\n              pop\n              pop\n              jump\t// out\n                /* \"#utility.yul\":2646:2764   */\n            tag_132:\n                /* \"#utility.yul\":2733:2757   */\n              tag_190\n                /* \"#utility.yul\":2751:2756   */\n              dup2\n                /* \"#utility.yul\":2733:2757   */\n              tag_126\n              jump\t// in\n            tag_190:\n                /* \"#utility.yul\":2728:2731   */\n              dup3\n                /* \"#utility.yul\":2721:2758   */\n              mstore\n                /* \"#utility.yul\":2646:2764   */\n              pop\n              pop\n              jump\t// out\n                /* \"#utility.yul\":2770:3434   */\n            tag_36:\n                /* \"#utility.yul\":2975:2979   */\n              0x00\n                /* \"#utility.yul\":3013:3016   */\n              0xa0\n                /* \"#utility.yul\":3002:3011   */\n              dup3\n                /* \"#utility.yul\":2998:3017   */\n              add\n                /* \"#utility.yul\":2990:3017   */\n              swap1\n              pop\n                /* \"#utility.yul\":3027:3098   */\n              tag_192\n                /* \"#utility.yul\":3095:3096   */\n              0x00\n                /* \"#utility.yul\":3084:3093   */\n              dup4\n                /* \"#utility.yul\":3080:3097   */\n              add\n                /* \"#utility.yul\":3071:3077   */\n              dup9\n                /* \"#utility.yul\":3027:3098   */\n              tag_131\n              jump\t// in\n            tag_192:\n                /* \"#utility.yul\":3108:3180   */\n              tag_193\n                /* \"#utility.yul\":3176:3178   */\n              0x20\n                /* \"#utility.yul\":3165:3174   */\n              dup4\n                /* \"#utility.yul\":3161:3179   */\n              add\n                /* \"#utility.yul\":3152:3158   */\n              dup8\n                /* \"#utility.yul\":3108:3180   */\n              tag_131\n              jump\t// in\n            tag_193:\n                /* \"#utility.yul\":3190:3262   */\n              tag_194\n                /* \"#utility.yul\":3258:3260   */\n              0x40\n                /* \"#utility.yul\":3247:3256   */\n              dup4\n                /* \"#utility.yul\":3243:3261   */\n              add\n                /* \"#utility.yul\":3234:3240   */\n              dup7\n                /* \"#utility.yul\":3190:3262   */\n              tag_131\n              jump\t// in\n            tag_194:\n                /* \"#utility.yul\":3272:3344   */\n              tag_195\n                /* \"#utility.yul\":3340:3342   */\n              0x60\n                /* \"#utility.yul\":3329:3338   */\n              dup4\n                /* \"#utility.yul\":3325:3343   */\n              add\n                /* \"#utility.yul\":3316:3322   */\n              dup6\n                /* \"#utility.yul\":3272:3344   */\n              tag_131\n              jump\t// in\n            tag_195:\n                /* \"#utility.yul\":3354:3427   */\n              tag_196\n                /* \"#utility.yul\":3422:3425   */\n              0x80\n                /* \"#utility.yul\":3411:3420   */\n              dup4\n                /* \"#utility.yul\":3407:3426   */\n              add\n                /* \"#utility.yul\":3398:3404   */\n              dup5\n                /* \"#utility.yul\":3354:3427   */\n              tag_132\n              jump\t// in\n            tag_196:\n                /* \"#utility.yul\":2770:3434   */\n              swap7\n              swap6\n              pop\n              pop\n              pop\n              pop\n              pop\n              pop\n              jump\t// out\n                /* \"#utility.yul\":3440:3662   */\n            tag_41:\n                /* \"#utility.yul\":3533:3537   */\n              0x00\n                /* \"#utility.yul\":3571:3573   */\n              0x20\n                /* \"#utility.yul\":3560:3569   */\n              dup3\n                /* \"#utility.yul\":3556:3574   */\n              add\n                /* \"#utility.yul\":3548:3574   */\n              swap1\n              pop\n                /* \"#utility.yul\":3584:3655   */\n              tag_198\n                /* \"#utility.yul\":3652:3653   */\n              0x00\n                /* \"#utility.yul\":3641:3650   */\n              dup4\n                /* \"#utility.yul\":3637:3654   */\n              add\n                /* \"#utility.yul\":3628:3634   */\n              dup5\n                /* \"#utility.yul\":3584:3655   */\n              tag_132\n              jump\t// in\n            tag_198:\n                /* \"#utility.yul\":3440:3662   */\n              swap3\n              swap2\n              pop\n              pop\n              jump\t// out\n                /* \"#utility.yul\":3668:4142   */\n            tag_45:\n                /* \"#utility.yul\":3736:3742   */\n              0x00\n                /* \"#utility.yul\":3744:3750   */\n              dup1\n                /* \"#utility.yul\":3793:3795   */\n              0x40\n                /* \"#utility.yul\":3781:3790   */\n              dup4\n                /* \"#utility.yul\":3772:3779   */\n              dup6\n                /* \"#utility.yul\":3768:3791   */\n              sub\n                /* \"#utility.yul\":3764:3796   */\n              slt\n                /* \"#utility.yul\":3761:3880   */\n              iszero\n              tag_200\n              jumpi\n                /* \"#utility.yul\":3799:3878   */\n              tag_201\n              tag_120\n              jump\t// in\n            tag_201:\n                /* \"#utility.yul\":3761:3880   */\n            tag_200:\n                /* \"#utility.yul\":3919:3920   */\n              0x00\n                /* \"#utility.yul\":3944:3997   */\n              tag_202\n                /* \"#utility.yul\":3989:3996   */\n              dup6\n                /* \"#utility.yul\":3980:3986   */\n              dup3\n                /* \"#utility.yul\":3969:3978   */\n              dup7\n                /* \"#utility.yul\":3965:3987   */\n              add\n                /* \"#utility.yul\":3944:3997   */\n              tag_124\n              jump\t// in\n            tag_202:\n                /* \"#utility.yul\":3934:3997   */\n              swap3\n              pop\n                /* \"#utility.yul\":3890:4007   */\n              pop\n                /* \"#utility.yul\":4046:4048   */\n              0x20\n                /* \"#utility.yul\":4072:4125   */\n              tag_203\n                /* \"#utility.yul\":4117:4124   */\n              dup6\n                /* \"#utility.yul\":4108:4114   */\n              dup3\n                /* \"#utility.yul\":4097:4106   */\n              dup7\n                /* \"#utility.yul\":4093:4115   */\n              add\n                /* \"#utility.yul\":4072:4125   */\n              tag_128\n              jump\t// in\n            tag_203:\n                /* \"#utility.yul\":4062:4125   */\n              swap2\n              pop\n                /* \"#utility.yul\":4017:4135   */\n              pop\n                /* \"#utility.yul\":3668:4142   */\n              swap3\n              pop\n              swap3\n              swap1\n              pop\n              jump\t// out\n                /* \"#utility.yul\":4148:4247   */\n            tag_133:\n                /* \"#utility.yul\":4200:4206   */\n              0x00\n                /* \"#utility.yul\":4234:4239   */\n              dup2\n                /* \"#utility.yul\":4228:4240   */\n              mload\n                /* \"#utility.yul\":4218:4240   */\n              swap1\n              pop\n                /* \"#utility.yul\":4148:4247   */\n              swap2\n              swap1\n              pop\n              jump\t// out\n                /* \"#utility.yul\":4253:4422   */\n            tag_134:\n                /* \"#utility.yul\":4337:4348   */\n              0x00\n                /* \"#utility.yul\":4371:4377   */\n              dup3\n                /* \"#utility.yul\":4366:4369   */\n              dup3\n                /* \"#utility.yul\":4359:4378   */\n              mstore\n                /* \"#utility.yul\":4411:4415   */\n              0x20\n                /* \"#utility.yul\":4406:4409   */\n              dup3\n                /* \"#utility.yul\":4402:4416   */\n              add\n                /* \"#utility.yul\":4387:4416   */\n              swap1\n              pop\n                /* \"#utility.yul\":4253:4422   */\n              swap3\n              swap2\n              pop\n              pop\n              jump\t// out\n                /* \"#utility.yul\":4428:4735   */\n            tag_135:\n                /* \"#utility.yul\":4496:4497   */\n              0x00\n                /* \"#utility.yul\":4506:4619   */\n            tag_207:\n                /* \"#utility.yul\":4520:4526   */\n              dup4\n                /* \"#utility.yul\":4517:4518   */\n              dup2\n                /* \"#utility.yul\":4514:4527   */\n              lt\n                /* \"#utility.yul\":4506:4619   */\n              iszero\n              tag_209\n              jumpi\n                /* \"#utility.yul\":4605:4606   */\n              dup1\n                /* \"#utility.yul\":4600:4603   */\n              dup3\n                /* \"#utility.yul\":4596:4607   */\n              add\n                /* \"#utility.yul\":4590:4608   */\n              mload\n                /* \"#utility.yul\":4586:4587   */\n              dup2\n                /* \"#utility.yul\":4581:4584   */\n              dup5\n                /* \"#utility.yul\":4577:4588   */\n              add\n                /* \"#utility.yul\":4570:4609   */\n              mstore\n                /* \"#utility.yul\":4542:4544   */\n              0x20\n                /* \"#utility.yul\":4539:4540   */\n              dup2\n                /* \"#utility.yul\":4535:4545   */\n              add\n                /* \"#utility.yul\":4530:4545   */\n              swap1\n              pop\n                /* \"#utility.yul\":4506:4619   */\n              jump(tag_207)\n            tag_209:\n                /* \"#utility.yul\":4637:4643   */\n              dup4\n                /* \"#utility.yul\":4634:4635   */\n              dup2\n                /* \"#utility.yul\":4631:4644   */\n              gt\n                /* \"#utility.yul\":4628:4729   */\n              iszero\n              tag_210\n              jumpi\n                /* \"#utility.yul\":4717:4718   */\n              0x00\n                /* \"#utility.yul\":4708:4714   */\n              dup5\n                /* \"#utility.yul\":4703:4706   */\n              dup5\n                /* \"#utility.yul\":4699:4715   */\n              add\n                /* \"#utility.yul\":4692:4719   */\n              mstore\n                /* \"#utility.yul\":4628:4729   */\n            tag_210:\n                /* \"#utility.yul\":4477:4735   */\n              pop\n                /* \"#utility.yul\":4428:4735   */\n              pop\n              pop\n              pop\n              jump\t// out\n                /* \"#utility.yul\":4741:4843   */\n            tag_136:\n                /* \"#utility.yul\":4782:4788   */\n              0x00\n                /* \"#utility.yul\":4833:4835   */\n              0x1f\n                /* \"#utility.yul\":4829:4836   */\n              not\n                /* \"#utility.yul\":4824:4826   */\n              0x1f\n                /* \"#utility.yul\":4817:4822   */\n              dup4\n                /* \"#utility.yul\":4813:4827   */\n              add\n                /* \"#utility.yul\":4809:4837   */\n              and\n                /* \"#utility.yul\":4799:4837   */\n              swap1\n              pop\n                /* \"#utility.yul\":4741:4843   */\n              swap2\n              swap1\n              pop\n              jump\t// out\n                /* \"#utility.yul\":4849:5213   */\n            tag_137:\n                /* \"#utility.yul\":4937:4940   */\n              0x00\n                /* \"#utility.yul\":4965:5004   */\n              tag_213\n                /* \"#utility.yul\":4998:5003   */\n              dup3\n                /* \"#utility.yul\":4965:5004   */\n              tag_133\n              jump\t// in\n            tag_213:\n                /* \"#utility.yul\":5020:5091   */\n              tag_214\n                /* \"#utility.yul\":5084:5090   */\n              dup2\n                /* \"#utility.yul\":5079:5082   */\n              dup6\n                /* \"#utility.yul\":5020:5091   */\n              tag_134\n              jump\t// in\n            tag_214:\n                /* \"#utility.yul\":5013:5091   */\n              swap4\n              pop\n                /* \"#utility.yul\":5100:5152   */\n              tag_215\n                /* \"#utility.yul\":5145:5151   */\n              dup2\n                /* \"#utility.yul\":5140:5143   */\n              dup6\n                /* \"#utility.yul\":5133:5137   */\n              0x20\n                /* \"#utility.yul\":5126:5131   */\n              dup7\n                /* \"#utility.yul\":5122:5138   */\n              add\n                /* \"#utility.yul\":5100:5152   */\n              tag_135\n              jump\t// in\n            tag_215:\n                /* \"#utility.yul\":5177:5206   */\n              tag_216\n                /* \"#utility.yul\":5199:5205   */\n              dup2\n                /* \"#utility.yul\":5177:5206   */\n              tag_136\n              jump\t// in\n            tag_216:\n                /* \"#utility.yul\":5172:5175   */\n              dup5\n                /* \"#utility.yul\":5168:5207   */\n              add\n                /* \"#utility.yul\":5161:5207   */\n              swap2\n              pop\n                /* \"#utility.yul\":4941:5213   */\n              pop\n                /* \"#utility.yul\":4849:5213   */\n              swap3\n              swap2\n              pop\n              pop\n              jump\t// out\n                /* \"#utility.yul\":5219:5323   */\n            tag_138:\n                /* \"#utility.yul\":5264:5271   */\n              0x00\n                /* \"#utility.yul\":5293:5317   */\n              tag_218\n                /* \"#utility.yul\":5311:5316   */\n              dup3\n                /* \"#utility.yul\":5293:5317   */\n              tag_125\n              jump\t// in\n            tag_218:\n                /* \"#utility.yul\":5282:5317   */\n              swap1\n              pop\n                /* \"#utility.yul\":5219:5323   */\n              swap2\n              swap1\n              pop\n              jump\t// out\n                /* \"#utility.yul\":5329:5471   */\n            tag_139:\n                /* \"#utility.yul\":5432:5464   */\n              tag_220\n                /* \"#utility.yul\":5458:5463   */\n              dup2\n                /* \"#utility.yul\":5432:5464   */\n              tag_138\n              jump\t// in\n            tag_220:\n                /* \"#utility.yul\":5427:5430   */\n              dup3\n                /* \"#utility.yul\":5420:5465   */\n              mstore\n                /* \"#utility.yul\":5329:5471   */\n              pop\n              pop\n              jump\t// out\n                /* \"#utility.yul\":5477:6252   */\n            tag_53:\n                /* \"#utility.yul\":5712:5716   */\n              0x00\n                /* \"#utility.yul\":5750:5753   */\n              0xa0\n                /* \"#utility.yul\":5739:5748   */\n              dup3\n                /* \"#utility.yul\":5735:5754   */\n              add\n                /* \"#utility.yul\":5727:5754   */\n              swap1\n              pop\n                /* \"#utility.yul\":5800:5809   */\n              dup2\n                /* \"#utility.yul\":5794:5798   */\n              dup2\n                /* \"#utility.yul\":5790:5810   */\n              sub\n                /* \"#utility.yul\":5786:5787   */\n              0x00\n                /* \"#utility.yul\":5775:5784   */\n              dup4\n                /* \"#utility.yul\":5771:5788   */\n              add\n                /* \"#utility.yul\":5764:5811   */\n              mstore\n                /* \"#utility.yul\":5828:5906   */\n              tag_222\n                /* \"#utility.yul\":5901:5905   */\n              dup2\n                /* \"#utility.yul\":5892:5898   */\n              dup9\n                /* \"#utility.yul\":5828:5906   */\n              tag_137\n              jump\t// in\n            tag_222:\n                /* \"#utility.yul\":5820:5906   */\n              swap1\n              pop\n                /* \"#utility.yul\":5916:5988   */\n              tag_223\n                /* \"#utility.yul\":5984:5986   */\n              0x20\n                /* \"#utility.yul\":5973:5982   */\n              dup4\n                /* \"#utility.yul\":5969:5987   */\n              add\n                /* \"#utility.yul\":5960:5966   */\n              dup8\n                /* \"#utility.yul\":5916:5988   */\n              tag_131\n              jump\t// in\n            tag_223:\n                /* \"#utility.yul\":5998:6086   */\n              tag_224\n                /* \"#utility.yul\":6082:6084   */\n              0x40\n                /* \"#utility.yul\":6071:6080   */\n              dup4\n                /* \"#utility.yul\":6067:6085   */\n              add\n                /* \"#utility.yul\":6058:6064   */\n              dup7\n                /* \"#utility.yul\":5998:6086   */\n              tag_139\n              jump\t// in\n            tag_224:\n                /* \"#utility.yul\":6096:6162   */\n              tag_225\n                /* \"#utility.yul\":6158:6160   */\n              0x60\n                /* \"#utility.yul\":6147:6156   */\n              dup4\n                /* \"#utility.yul\":6143:6161   */\n              add\n                /* \"#utility.yul\":6134:6140   */\n              dup6\n                /* \"#utility.yul\":6096:6162   */\n              tag_130\n              jump\t// in\n            tag_225:\n                /* \"#utility.yul\":6172:6245   */\n              tag_226\n                /* \"#utility.yul\":6240:6243   */\n              0x80\n                /* \"#utility.yul\":6229:6238   */\n              dup4\n                /* \"#utility.yul\":6225:6244   */\n              add\n                /* \"#utility.yul\":6216:6222   */\n              dup5\n                /* \"#utility.yul\":6172:6245   */\n              tag_131\n              jump\t// in\n            tag_226:\n                /* \"#utility.yul\":5477:6252   */\n              swap7\n              swap6\n              pop\n              pop\n              pop\n              pop\n              pop\n              pop\n              jump\t// out\n                /* \"#utility.yul\":6258:6375   */\n            tag_140:\n                /* \"#utility.yul\":6367:6368   */\n              0x00\n                /* \"#utility.yul\":6364:6365   */\n              dup1\n                /* \"#utility.yul\":6357:6369   */\n              revert\n                /* \"#utility.yul\":6381:6498   */\n            tag_141:\n                /* \"#utility.yul\":6490:6491   */\n              0x00\n                /* \"#utility.yul\":6487:6488   */\n              dup1\n                /* \"#utility.yul\":6480:6492   */\n              revert\n                /* \"#utility.yul\":6504:6684   */\n            tag_142:\n                /* \"#utility.yul\":6552:6629   */\n              0x4e487b7100000000000000000000000000000000000000000000000000000000\n                /* \"#utility.yul\":6549:6550   */\n              0x00\n                /* \"#utility.yul\":6542:6630   */\n              mstore\n                /* \"#utility.yul\":6649:6653   */\n              0x41\n                /* \"#utility.yul\":6646:6647   */\n              0x04\n                /* \"#utility.yul\":6639:6654   */\n              mstore\n                /* \"#utility.yul\":6673:6677   */\n              0x24\n                /* \"#utility.yul\":6670:6671   */\n              0x00\n                /* \"#utility.yul\":6663:6678   */\n              revert\n                /* \"#utility.yul\":6690:6971   */\n            tag_143:\n                /* \"#utility.yul\":6773:6800   */\n              tag_231\n                /* \"#utility.yul\":6795:6799   */\n              dup3\n                /* \"#utility.yul\":6773:6800   */\n              tag_136\n              jump\t// in\n            tag_231:\n                /* \"#utility.yul\":6765:6771   */\n              dup2\n                /* \"#utility.yul\":6761:6801   */\n              add\n                /* \"#utility.yul\":6903:6909   */\n              dup2\n                /* \"#utility.yul\":6891:6901   */\n              dup2\n                /* \"#utility.yul\":6888:6910   */\n              lt\n                /* \"#utility.yul\":6867:6885   */\n              0xffffffffffffffff\n                /* \"#utility.yul\":6855:6865   */\n              dup3\n                /* \"#utility.yul\":6852:6886   */\n              gt\n                /* \"#utility.yul\":6849:6911   */\n              or\n                /* \"#utility.yul\":6846:6934   */\n              iszero\n              tag_232\n              jumpi\n                /* \"#utility.yul\":6914:6932   */\n              tag_233\n              tag_142\n              jump\t// in\n            tag_233:\n                /* \"#utility.yul\":6846:6934   */\n            tag_232:\n                /* \"#utility.yul\":6954:6964   */\n              dup1\n                /* \"#utility.yul\":6950:6952   */\n              0x40\n                /* \"#utility.yul\":6943:6965   */\n              mstore\n                /* \"#utility.yul\":6733:6971   */\n              pop\n                /* \"#utility.yul\":6690:6971   */\n              pop\n              pop\n              jump\t// out\n                /* \"#utility.yul\":6977:7106   */\n            tag_144:\n                /* \"#utility.yul\":7011:7017   */\n              0x00\n                /* \"#utility.yul\":7038:7058   */\n              tag_235\n              tag_119\n              jump\t// in\n            tag_235:\n                /* \"#utility.yul\":7028:7058   */\n              swap1\n              pop\n                /* \"#utility.yul\":7067:7100   */\n              tag_236\n                /* \"#utility.yul\":7095:7099   */\n              dup3\n                /* \"#utility.yul\":7087:7093   */\n              dup3\n                /* \"#utility.yul\":7067:7100   */\n              tag_143\n              jump\t// in\n            tag_236:\n                /* \"#utility.yul\":6977:7106   */\n              swap2\n              swap1\n              pop\n              jump\t// out\n                /* \"#utility.yul\":7112:7420   */\n            tag_145:\n                /* \"#utility.yul\":7174:7178   */\n              0x00\n                /* \"#utility.yul\":7264:7282   */\n              0xffffffffffffffff\n                /* \"#utility.yul\":7256:7262   */\n              dup3\n                /* \"#utility.yul\":7253:7283   */\n              gt\n                /* \"#utility.yul\":7250:7306   */\n              iszero\n              tag_238\n              jumpi\n                /* \"#utility.yul\":7286:7304   */\n              tag_239\n              tag_142\n              jump\t// in\n            tag_239:\n                /* \"#utility.yul\":7250:7306   */\n            tag_238:\n                /* \"#utility.yul\":7324:7353   */\n              tag_240\n                /* \"#utility.yul\":7346:7352   */\n              dup3\n                /* \"#utility.yul\":7324:7353   */\n              tag_136\n              jump\t// in\n            tag_240:\n                /* \"#utility.yul\":7316:7353   */\n              swap1\n              pop\n                /* \"#utility.yul\":7408:7412   */\n              0x20\n                /* \"#utility.yul\":7402:7406   */\n              dup2\n                /* \"#utility.yul\":7398:7413   */\n              add\n                /* \"#utility.yul\":7390:7413   */\n              swap1\n              pop\n                /* \"#utility.yul\":7112:7420   */\n              swap2\n              swap1\n              pop\n              jump\t// out\n                /* \"#utility.yul\":7426:7580   */\n            tag_146:\n                /* \"#utility.yul\":7510:7516   */\n              dup3\n                /* \"#utility.yul\":7505:7508   */\n              dup2\n                /* \"#utility.yul\":7500:7503   */\n              dup4\n                /* \"#utility.yul\":7487:7517   */\n              calldatacopy\n                /* \"#utility.yul\":7572:7573   */\n              0x00\n                /* \"#utility.yul\":7563:7569   */\n              dup4\n                /* \"#utility.yul\":7558:7561   */\n              dup4\n                /* \"#utility.yul\":7554:7570   */\n              add\n                /* \"#utility.yul\":7547:7574   */\n              mstore\n                /* \"#utility.yul\":7426:7580   */\n              pop\n              pop\n              pop\n              jump\t// out\n                /* \"#utility.yul\":7586:7998   */\n            tag_147:\n                /* \"#utility.yul\":7664:7669   */\n              0x00\n                /* \"#utility.yul\":7689:7755   */\n              tag_243\n                /* \"#utility.yul\":7705:7754   */\n              tag_244\n                /* \"#utility.yul\":7747:7753   */\n              dup5\n                /* \"#utility.yul\":7705:7754   */\n              tag_145\n              jump\t// in\n            tag_244:\n                /* \"#utility.yul\":7689:7755   */\n              tag_144\n              jump\t// in\n            tag_243:\n                /* \"#utility.yul\":7680:7755   */\n              swap1\n              pop\n                /* \"#utility.yul\":7778:7784   */\n              dup3\n                /* \"#utility.yul\":7771:7776   */\n              dup2\n                /* \"#utility.yul\":7764:7785   */\n              mstore\n                /* \"#utility.yul\":7816:7820   */\n              0x20\n                /* \"#utility.yul\":7809:7814   */\n              dup2\n                /* \"#utility.yul\":7805:7821   */\n              add\n                /* \"#utility.yul\":7854:7857   */\n              dup5\n                /* \"#utility.yul\":7845:7851   */\n              dup5\n                /* \"#utility.yul\":7840:7843   */\n              dup5\n                /* \"#utility.yul\":7836:7852   */\n              add\n                /* \"#utility.yul\":7833:7858   */\n              gt\n                /* \"#utility.yul\":7830:7942   */\n              iszero\n              tag_245\n              jumpi\n                /* \"#utility.yul\":7861:7940   */\n              tag_246\n              tag_141\n              jump\t// in\n            tag_246:\n                /* \"#utility.yul\":7830:7942   */\n            tag_245:\n                /* \"#utility.yul\":7951:7992   */\n              tag_247\n                /* \"#utility.yul\":7985:7991   */\n              dup5\n                /* \"#utility.yul\":7980:7983   */\n              dup3\n                /* \"#utility.yul\":7975:7978   */\n              dup6\n                /* \"#utility.yul\":7951:7992   */\n              tag_146\n              jump\t// in\n            tag_247:\n                /* \"#utility.yul\":7670:7998   */\n              pop\n                /* \"#utility.yul\":7586:7998   */\n              swap4\n              swap3\n              pop\n              pop\n              pop\n              jump\t// out\n                /* \"#utility.yul\":8018:8358   */\n            tag_148:\n                /* \"#utility.yul\":8074:8079   */\n              0x00\n                /* \"#utility.yul\":8123:8126   */\n              dup3\n                /* \"#utility.yul\":8116:8120   */\n              0x1f\n                /* \"#utility.yul\":8108:8114   */\n              dup4\n                /* \"#utility.yul\":8104:8121   */\n              add\n                /* \"#utility.yul\":8100:8127   */\n              slt\n                /* \"#utility.yul\":8090:8212   */\n              tag_249\n              jumpi\n                /* \"#utility.yul\":8131:8210   */\n              tag_250\n              tag_140\n              jump\t// in\n            tag_250:\n                /* \"#utility.yul\":8090:8212   */\n            tag_249:\n                /* \"#utility.yul\":8248:8254   */\n              dup2\n                /* \"#utility.yul\":8235:8255   */\n              calldataload\n                /* \"#utility.yul\":8273:8352   */\n              tag_251\n                /* \"#utility.yul\":8348:8351   */\n              dup5\n                /* \"#utility.yul\":8340:8346   */\n              dup3\n                /* \"#utility.yul\":8333:8337   */\n              0x20\n                /* \"#utility.yul\":8325:8331   */\n              dup7\n                /* \"#utility.yul\":8321:8338   */\n              add\n                /* \"#utility.yul\":8273:8352   */\n              tag_147\n              jump\t// in\n            tag_251:\n                /* \"#utility.yul\":8264:8352   */\n              swap2\n              pop\n                /* \"#utility.yul\":8080:8358   */\n              pop\n                /* \"#utility.yul\":8018:8358   */\n              swap3\n              swap2\n              pop\n              pop\n              jump\t// out\n                /* \"#utility.yul\":8364:8502   */\n            tag_149:\n                /* \"#utility.yul\":8445:8477   */\n              tag_253\n                /* \"#utility.yul\":8471:8476   */\n              dup2\n                /* \"#utility.yul\":8445:8477   */\n              tag_138\n              jump\t// in\n            tag_253:\n                /* \"#utility.yul\":8438:8443   */\n              dup2\n                /* \"#utility.yul\":8435:8478   */\n              eq\n                /* \"#utility.yul\":8425:8496   */\n              tag_254\n              jumpi\n                /* \"#utility.yul\":8492:8493   */\n              0x00\n                /* \"#utility.yul\":8489:8490   */\n              dup1\n                /* \"#utility.yul\":8482:8494   */\n              revert\n                /* \"#utility.yul\":8425:8496   */\n            tag_254:\n                /* \"#utility.yul\":8364:8502   */\n              pop\n              jump\t// out\n                /* \"#utility.yul\":8508:8663   */\n            tag_150:\n                /* \"#utility.yul\":8562:8567   */\n              0x00\n                /* \"#utility.yul\":8600:8606   */\n              dup2\n                /* \"#utility.yul\":8587:8607   */\n              calldataload\n                /* \"#utility.yul\":8578:8607   */\n              swap1\n              pop\n                /* \"#utility.yul\":8616:8657   */\n              tag_256\n                /* \"#utility.yul\":8651:8656   */\n              dup2\n                /* \"#utility.yul\":8616:8657   */\n              tag_149\n              jump\t// in\n            tag_256:\n                /* \"#utility.yul\":8508:8663   */\n              swap3\n              swap2\n              pop\n              pop\n              jump\t// out\n                /* \"#utility.yul\":8669:9484   */\n            tag_57:\n                /* \"#utility.yul\":8764:8770   */\n              0x00\n                /* \"#utility.yul\":8772:8778   */\n              dup1\n                /* \"#utility.yul\":8780:8786   */\n              0x00\n                /* \"#utility.yul\":8829:8831   */\n              0x60\n                /* \"#utility.yul\":8817:8826   */\n              dup5\n                /* \"#utility.yul\":8808:8815   */\n              dup7\n                /* \"#utility.yul\":8804:8827   */\n              sub\n                /* \"#utility.yul\":8800:8832   */\n              slt\n                /* \"#utility.yul\":8797:8916   */\n              iszero\n              tag_258\n              jumpi\n                /* \"#utility.yul\":8835:8914   */\n              tag_259\n              tag_120\n              jump\t// in\n            tag_259:\n                /* \"#utility.yul\":8797:8916   */\n            tag_258:\n                /* \"#utility.yul\":8983:8984   */\n              0x00\n                /* \"#utility.yul\":8972:8981   */\n              dup5\n                /* \"#utility.yul\":8968:8985   */\n              add\n                /* \"#utility.yul\":8955:8986   */\n              calldataload\n                /* \"#utility.yul\":9013:9031   */\n              0xffffffffffffffff\n                /* \"#utility.yul\":9005:9011   */\n              dup2\n                /* \"#utility.yul\":9002:9032   */\n              gt\n                /* \"#utility.yul\":8999:9116   */\n              iszero\n              tag_260\n              jumpi\n                /* \"#utility.yul\":9035:9114   */\n              tag_261\n              tag_121\n              jump\t// in\n            tag_261:\n                /* \"#utility.yul\":8999:9116   */\n            tag_260:\n                /* \"#utility.yul\":9140:9203   */\n              tag_262\n                /* \"#utility.yul\":9195:9202   */\n              dup7\n                /* \"#utility.yul\":9186:9192   */\n              dup3\n                /* \"#utility.yul\":9175:9184   */\n              dup8\n                /* \"#utility.yul\":9171:9193   */\n              add\n                /* \"#utility.yul\":9140:9203   */\n              tag_148\n              jump\t// in\n            tag_262:\n                /* \"#utility.yul\":9130:9203   */\n              swap4\n              pop\n                /* \"#utility.yul\":8926:9213   */\n              pop\n                /* \"#utility.yul\":9252:9254   */\n              0x20\n                /* \"#utility.yul\":9278:9331   */\n              tag_263\n                /* \"#utility.yul\":9323:9330   */\n              dup7\n                /* \"#utility.yul\":9314:9320   */\n              dup3\n                /* \"#utility.yul\":9303:9312   */\n              dup8\n                /* \"#utility.yul\":9299:9321   */\n              add\n                /* \"#utility.yul\":9278:9331   */\n              tag_124\n              jump\t// in\n            tag_263:\n                /* \"#utility.yul\":9268:9331   */\n              swap3\n              pop\n                /* \"#utility.yul\":9223:9341   */\n              pop\n                /* \"#utility.yul\":9380:9382   */\n              0x40\n                /* \"#utility.yul\":9406:9467   */\n              tag_264\n                /* \"#utility.yul\":9459:9466   */\n              dup7\n                /* \"#utility.yul\":9450:9456   */\n              dup3\n                /* \"#utility.yul\":9439:9448   */\n              dup8\n                /* \"#utility.yul\":9435:9457   */\n              add\n                /* \"#utility.yul\":9406:9467   */\n              tag_150\n              jump\t// in\n            tag_264:\n                /* \"#utility.yul\":9396:9467   */\n              swap2\n              pop\n                /* \"#utility.yul\":9351:9477   */\n              pop\n                /* \"#utility.yul\":8669:9484   */\n              swap3\n              pop\n              swap3\n              pop\n              swap3\n              jump\t// out\n                /* \"#utility.yul\":9490:9670   */\n            tag_151:\n                /* \"#utility.yul\":9538:9615   */\n              0x4e487b7100000000000000000000000000000000000000000000000000000000\n                /* \"#utility.yul\":9535:9536   */\n              0x00\n                /* \"#utility.yul\":9528:9616   */\n              mstore\n                /* \"#utility.yul\":9635:9639   */\n              0x12\n                /* \"#utility.yul\":9632:9633   */\n              0x04\n                /* \"#utility.yul\":9625:9640   */\n              mstore\n                /* \"#utility.yul\":9659:9663   */\n              0x24\n                /* \"#utility.yul\":9656:9657   */\n              0x00\n                /* \"#utility.yul\":9649:9664   */\n              revert\n                /* \"#utility.yul\":9676:9856   */\n            tag_152:\n                /* \"#utility.yul\":9724:9801   */\n              0x4e487b7100000000000000000000000000000000000000000000000000000000\n                /* \"#utility.yul\":9721:9722   */\n              0x00\n                /* \"#utility.yul\":9714:9802   */\n              mstore\n                /* \"#utility.yul\":9821:9825   */\n              0x11\n                /* \"#utility.yul\":9818:9819   */\n              0x04\n                /* \"#utility.yul\":9811:9826   */\n              mstore\n                /* \"#utility.yul\":9845:9849   */\n              0x24\n                /* \"#utility.yul\":9842:9843   */\n              0x00\n                /* \"#utility.yul\":9835:9850   */\n              revert\n                /* \"#utility.yul\":9862:10047   */\n            tag_78:\n                /* \"#utility.yul\":9902:9903   */\n              0x00\n                /* \"#utility.yul\":9919:9939   */\n              tag_268\n                /* \"#utility.yul\":9937:9938   */\n              dup3\n                /* \"#utility.yul\":9919:9939   */\n              tag_122\n              jump\t// in\n            tag_268:\n                /* \"#utility.yul\":9914:9939   */\n              swap2\n              pop\n                /* \"#utility.yul\":9953:9973   */\n              tag_269\n                /* \"#utility.yul\":9971:9972   */\n              dup4\n                /* \"#utility.yul\":9953:9973   */\n              tag_122\n              jump\t// in\n            tag_269:\n                /* \"#utility.yul\":9948:9973   */\n              swap3\n              pop\n                /* \"#utility.yul\":9992:9993   */\n              dup3\n                /* \"#utility.yul\":9982:10017   */\n              tag_270\n              jumpi\n                /* \"#utility.yul\":9997:10015   */\n              tag_271\n              tag_151\n              jump\t// in\n            tag_271:\n                /* \"#utility.yul\":9982:10017   */\n            tag_270:\n                /* \"#utility.yul\":10039:10040   */\n              dup3\n                /* \"#utility.yul\":10036:10037   */\n              dup3\n                /* \"#utility.yul\":10032:10041   */\n              div\n                /* \"#utility.yul\":10027:10041   */\n              swap1\n              pop\n                /* \"#utility.yul\":9862:10047   */\n              swap3\n              swap2\n              pop\n              pop\n              jump\t// out\n                /* \"#utility.yul\":10053:10233   */\n            tag_153:\n                /* \"#utility.yul\":10101:10178   */\n              0x4e487b7100000000000000000000000000000000000000000000000000000000\n                /* \"#utility.yul\":10098:10099   */\n              0x00\n                /* \"#utility.yul\":10091:10179   */\n              mstore\n                /* \"#utility.yul\":10198:10202   */\n              0x22\n                /* \"#utility.yul\":10195:10196   */\n              0x04\n                /* \"#utility.yul\":10188:10203   */\n              mstore\n                /* \"#utility.yul\":10222:10226   */\n              0x24\n                /* \"#utility.yul\":10219:10220   */\n              0x00\n                /* \"#utility.yul\":10212:10227   */\n              revert\n                /* \"#utility.yul\":10239:10559   */\n            tag_86:\n                /* \"#utility.yul\":10283:10289   */\n              0x00\n                /* \"#utility.yul\":10320:10321   */\n              0x02\n                /* \"#utility.yul\":10314:10318   */\n              dup3\n                /* \"#utility.yul\":10310:10322   */\n              div\n                /* \"#utility.yul\":10300:10322   */\n              swap1\n              pop\n                /* \"#utility.yul\":10367:10368   */\n              0x01\n                /* \"#utility.yul\":10361:10365   */\n              dup3\n                /* \"#utility.yul\":10357:10369   */\n              and\n                /* \"#utility.yul\":10388:10406   */\n              dup1\n                /* \"#utility.yul\":10378:10459   */\n              tag_274\n              jumpi\n                /* \"#utility.yul\":10444:10448   */\n              0x7f\n                /* \"#utility.yul\":10436:10442   */\n              dup3\n                /* \"#utility.yul\":10432:10449   */\n              and\n                /* \"#utility.yul\":10422:10449   */\n              swap2\n              pop\n                /* \"#utility.yul\":10378:10459   */\n            tag_274:\n                /* \"#utility.yul\":10506:10508   */\n              0x20\n                /* \"#utility.yul\":10498:10504   */\n              dup3\n                /* \"#utility.yul\":10495:10509   */\n              lt\n                /* \"#utility.yul\":10475:10493   */\n              dup2\n                /* \"#utility.yul\":10472:10510   */\n              eq\n                /* \"#utility.yul\":10469:10553   */\n              iszero\n              tag_275\n              jumpi\n                /* \"#utility.yul\":10525:10543   */\n              tag_276\n              tag_153\n              jump\t// in\n            tag_276:\n                /* \"#utility.yul\":10469:10553   */\n            tag_275:\n                /* \"#utility.yul\":10290:10559   */\n              pop\n                /* \"#utility.yul\":10239:10559   */\n              swap2\n              swap1\n              pop\n              jump\t// out\n                /* \"#utility.yul\":10565:10798   */\n            tag_95:\n                /* \"#utility.yul\":10604:10607   */\n              0x00\n                /* \"#utility.yul\":10627:10651   */\n              tag_278\n                /* \"#utility.yul\":10645:10650   */\n              dup3\n                /* \"#utility.yul\":10627:10651   */\n              tag_122\n              jump\t// in\n            tag_278:\n                /* \"#utility.yul\":10618:10651   */\n              swap2\n              pop\n                /* \"#utility.yul\":10673:10739   */\n              0xffffffffffffffffffffffffffffffffffffffffffffffffffffffffffffffff\n                /* \"#utility.yul\":10666:10671   */\n              dup3\n                /* \"#utility.yul\":10663:10740   */\n              eq\n                /* \"#utility.yul\":10660:10763   */\n              iszero\n              tag_279\n              jumpi\n                /* \"#utility.yul\":10743:10761   */\n              tag_280\n              tag_152\n              jump\t// in\n            tag_280:\n                /* \"#utility.yul\":10660:10763   */\n            tag_279:\n                /* \"#utility.yul\":10790:10791   */\n              0x01\n                /* \"#utility.yul\":10783:10788   */\n              dup3\n                /* \"#utility.yul\":10779:10792   */\n              add\n                /* \"#utility.yul\":10772:10792   */\n              swap1\n              pop\n                /* \"#utility.yul\":10565:10798   */\n              swap2\n              swap1\n              pop\n              jump\t// out\n                /* \"#utility.yul\":10804:11136   */\n            tag_100:\n                /* \"#utility.yul\":10925:10929   */\n              0x00\n                /* \"#utility.yul\":10963:10965   */\n              0x40\n                /* \"#utility.yul\":10952:10961   */\n              dup3\n                /* \"#utility.yul\":10948:10966   */\n              add\n                /* \"#utility.yul\":10940:10966   */\n              swap1\n              pop\n                /* \"#utility.yul\":10976:11047   */\n              tag_282\n                /* \"#utility.yul\":11044:11045   */\n              0x00\n                /* \"#utility.yul\":11033:11042   */\n              dup4\n                /* \"#utility.yul\":11029:11046   */\n              add\n                /* \"#utility.yul\":11020:11026   */\n              dup6\n                /* \"#utility.yul\":10976:11047   */\n              tag_132\n              jump\t// in\n            tag_282:\n                /* \"#utility.yul\":11057:11129   */\n              tag_283\n                /* \"#utility.yul\":11125:11127   */\n              0x20\n                /* \"#utility.yul\":11114:11123   */\n              dup4\n                /* \"#utility.yul\":11110:11128   */\n              add\n                /* \"#utility.yul\":11101:11107   */\n              dup5\n                /* \"#utility.yul\":11057:11129   */\n              tag_131\n              jump\t// in\n            tag_283:\n                /* \"#utility.yul\":10804:11136   */\n              swap4\n              swap3\n              pop\n              pop\n              pop\n              jump\t// out\n\n            auxdata: 0xa26469706673582212207a549b3e88a4e3199b809a5707b4f784a6438066e2799e1512bf9ed9369f93f864736f6c634300080b0033\n        }\n    }\n\n    auxdata: 0xa26469706673582212206622e50e047aa99ca82659679c55cd6facfd3daed41d42c36dfe4346e46cf75f64736f6c634300080b0033\n}\n","bytecode":{"linkReferences":{},"object":"608060405234801561001057600080fd5b50611623806100206000396000f3fe608060405234801561001057600080fd5b50600436106100415760003560e01c8063339d50a5146100465780634acb9d4f14610076578063a3303a7514610094575b600080fd5b610060600480360381019061005b9190610266565b6100b0565b60405161006d91906102d4565b60405180910390f35b61007e6100ef565b60405161008b91906103ad565b60405180910390f35b6100ae60048036038101906100a99190610266565b61017d565b005b600081815481106100c057600080fd5b906000526020600020016000915054906101000a900473ffffffffffffffffffffffffffffffffffffffff1681565b6060600080548060200260200160405190810160405280929190818152602001828054801561017357602002820191906000526020600020905b8160009054906101000a900473ffffffffffffffffffffffffffffffffffffffff1673ffffffffffffffffffffffffffffffffffffffff1681526020019060010190808311610129575b5050505050905090565b6000813360405161018d9061021e565b6101989291906103de565b604051809103906000f0801580156101b4573d6000803e3d6000fd5b5090506000819080600181540180825580915050600190039060005260206000200160009091909190916101000a81548173ffffffffffffffffffffffffffffffffffffffff021916908373ffffffffffffffffffffffffffffffffffffffff1602179055505050565b6111e68061040883390190565b600080fd5b6000819050919050565b61024381610230565b811461024e57600080fd5b50565b6000813590506102608161023a565b92915050565b60006020828403121561027c5761027b61022b565b5b600061028a84828501610251565b91505092915050565b600073ffffffffffffffffffffffffffffffffffffffff82169050919050565b60006102be82610293565b9050919050565b6102ce816102b3565b82525050565b60006020820190506102e960008301846102c5565b92915050565b600081519050919050565b600082825260208201905092915050565b6000819050602082019050919050565b610324816102b3565b82525050565b6000610336838361031b565b60208301905092915050565b6000602082019050919050565b600061035a826102ef565b61036481856102fa565b935061036f8361030b565b8060005b838110156103a0578151610387888261032a565b975061039283610342565b925050600181019050610373565b5085935050505092915050565b600060208201905081810360008301526103c7818461034f565b905092915050565b6103d881610230565b82525050565b60006040820190506103f360008301856103cf565b61040060208301846102c5565b939250505056fe608060405260006006553480156200001657600080fd5b50604051620011e6380380620011e683398181016040528101906200003c919062000130565b806000806101000a81548173ffffffffffffffffffffffffffffffffffffffff021916908373ffffffffffffffffffffffffffffffffffffffff16021790555081600181905550505062000177565b600080fd5b6000819050919050565b620000a58162000090565b8114620000b157600080fd5b50565b600081519050620000c5816200009a565b92915050565b600073ffffffffffffffffffffffffffffffffffffffff82169050919050565b6000620000f882620000cb565b9050919050565b6200010a81620000eb565b81146200011657600080fd5b50565b6000815190506200012a81620000ff565b92915050565b600080604083850312156200014a57620001496200008b565b5b60006200015a85828601620000b4565b92505060206200016d8582860162000119565b9150509250929050565b61105f80620001876000396000f3fe6080604052600436106100a75760003560e01c806381d12c581161006457806381d12c58146101d45780638a9cfd5514610215578063937e09b11461023e578063d7bb99ba14610269578063d7d1bbdb14610273578063e9f146a31461029c576100a7565b806303441006146100ac57806334b66460146100d55780633fad1834146101125780634051ddac1461013d578063481c6a751461016c57806356c3163714610197575b600080fd5b3480156100b857600080fd5b506100d360048036038101906100ce9190610a0e565b6102c7565b005b3480156100e157600080fd5b506100fc60048036038101906100f79190610a99565b610400565b6040516101099190610ae1565b60405180910390f35b34801561011e57600080fd5b50610127610420565b6040516101349190610b0b565b60405180910390f35b34801561014957600080fd5b5061015261042a565b604051610163959493929190610b35565b60405180910390f35b34801561017857600080fd5b5061018161046e565b60405161018e9190610b88565b60405180910390f35b3480156101a357600080fd5b506101be60048036038101906101b99190610ba3565b610492565b6040516101cb9190610ae1565b60405180910390f35b3480156101e057600080fd5b506101fb60048036038101906101f69190610a0e565b610502565b60405161020c959493929190610c9d565b60405180910390f35b34801561022157600080fd5b5061023c60048036038101906102379190610e58565b6105ed565b005b34801561024a57600080fd5b50610253610757565b6040516102609190610b0b565b60405180910390f35b61027161075d565b005b34801561027f57600080fd5b5061029a60048036038101906102959190610a0e565b6107dd565b005b3480156102a857600080fd5b506102b161091b565b6040516102be9190610b0b565b60405180910390f35b60008054906101000a900473ffffffffffffffffffffffffffffffffffffffff1673ffffffffffffffffffffffffffffffffffffffff163373ffffffffffffffffffffffffffffffffffffffff161461031f57600080fd5b60006003600083815260200190815260200160002090508060020160149054906101000a900460ff161561035257600080fd5b60026004546103619190610f25565b81600301541161037057600080fd5b8060020160009054906101000a900473ffffffffffffffffffffffffffffffffffffffff1673ffffffffffffffffffffffffffffffffffffffff166108fc82600101549081150290604051600060405180830381858888f193505050501580156103de573d6000803e3d6000fd5b5060018160020160146101000a81548160ff0219169083151502179055505050565b60026020528060005260406000206000915054906101000a900460ff1681565b6000600554905090565b60008060008060006001544760055460045460008054906101000a900473ffffffffffffffffffffffffffffffffffffffff16945094509450945094509091929394565b60008054906101000a900473ffffffffffffffffffffffffffffffffffffffff1681565b6000806003600085815260200190815260200160002090508060040160008473ffffffffffffffffffffffffffffffffffffffff1673ffffffffffffffffffffffffffffffffffffffff16815260200190815260200160002060009054906101000a900460ff1691505092915050565b600360205280600052604060002060009150905080600001805461052590610f85565b80601f016020809104026020016040519081016040528092919081815260200182805461055190610f85565b801561059e5780601f106105735761010080835404028352916020019161059e565b820191906000526020600020905b81548152906001019060200180831161058157829003601f168201915b5050505050908060010154908060020160009054906101000a900473ffffffffffffffffffffffffffffffffffffffff16908060020160149054906101000a900460ff16908060030154905085565b60008054906101000a900473ffffffffffffffffffffffffffffffffffffffff1673ffffffffffffffffffffffffffffffffffffffff163373ffffffffffffffffffffffffffffffffffffffff161461064557600080fd5b6000600360006006600081548092919061065e90610fb7565b91905055815260200190815260200160002090508381600001908051906020019061068a929190610921565b50828160010181905550818160020160006101000a81548173ffffffffffffffffffffffffffffffffffffffff021916908373ffffffffffffffffffffffffffffffffffffffff16021790555060008160020160146101000a81548160ff021916908315150217905550600081600301819055506005600081548092919061071190610fb7565b91905055507f859bc031f5d72b599e7f226e583d1c75987c71977ec43a20efef794391f8e93833600654604051610749929190611000565b60405180910390a150505050565b60015481565b600154341161076b57600080fd5b6001600260003373ffffffffffffffffffffffffffffffffffffffff1673ffffffffffffffffffffffffffffffffffffffff16815260200190815260200160002060006101000a81548160ff021916908315150217905550600460008154809291906107d690610fb7565b9190505550565b600260003373ffffffffffffffffffffffffffffffffffffffff1673ffffffffffffffffffffffffffffffffffffffff16815260200190815260200160002060009054906101000a900460ff1661083357600080fd5b60006003600083815260200190815260200160002090508060040160003373ffffffffffffffffffffffffffffffffffffffff1673ffffffffffffffffffffffffffffffffffffffff16815260200190815260200160002060009054906101000a900460ff16156108a357600080fd5b60018160040160003373ffffffffffffffffffffffffffffffffffffffff1673ffffffffffffffffffffffffffffffffffffffff16815260200190815260200160002060006101000a81548160ff02191690831515021790555080600301600081548092919061091290610fb7565b91905055505050565b60045481565b82805461092d90610f85565b90600052602060002090601f01602090048101928261094f5760008555610996565b82601f1061096857805160ff1916838001178555610996565b82800160010185558215610996579182015b8281111561099557825182559160200191906001019061097a565b5b5090506109a391906109a7565b5090565b5b808211156109c05760008160009055506001016109a8565b5090565b6000604051905090565b600080fd5b600080fd5b6000819050919050565b6109eb816109d8565b81146109f657600080fd5b50565b600081359050610a08816109e2565b92915050565b600060208284031215610a2457610a236109ce565b5b6000610a32848285016109f9565b91505092915050565b600073ffffffffffffffffffffffffffffffffffffffff82169050919050565b6000610a6682610a3b565b9050919050565b610a7681610a5b565b8114610a8157600080fd5b50565b600081359050610a9381610a6d565b92915050565b600060208284031215610aaf57610aae6109ce565b5b6000610abd84828501610a84565b91505092915050565b60008115159050919050565b610adb81610ac6565b82525050565b6000602082019050610af66000830184610ad2565b92915050565b610b05816109d8565b82525050565b6000602082019050610b206000830184610afc565b92915050565b610b2f81610a5b565b82525050565b600060a082019050610b4a6000830188610afc565b610b576020830187610afc565b610b646040830186610afc565b610b716060830185610afc565b610b7e6080830184610b26565b9695505050505050565b6000602082019050610b9d6000830184610b26565b92915050565b60008060408385031215610bba57610bb96109ce565b5b6000610bc8858286016109f9565b9250506020610bd985828601610a84565b9150509250929050565b600081519050919050565b600082825260208201905092915050565b60005b83811015610c1d578082015181840152602081019050610c02565b83811115610c2c576000848401525b50505050565b6000601f19601f8301169050919050565b6000610c4e82610be3565b610c588185610bee565b9350610c68818560208601610bff565b610c7181610c32565b840191505092915050565b6000610c8782610a3b565b9050919050565b610c9781610c7c565b82525050565b600060a0820190508181036000830152610cb78188610c43565b9050610cc66020830187610afc565b610cd36040830186610c8e565b610ce06060830185610ad2565b610ced6080830184610afc565b9695505050505050565b600080fd5b600080fd5b7f4e487b7100000000000000000000000000000000000000000000000000000000600052604160045260246000fd5b610d3982610c32565b810181811067ffffffffffffffff82111715610d5857610d57610d01565b5b80604052505050565b6000610d6b6109c4565b9050610d778282610d30565b919050565b600067ffffffffffffffff821115610d9757610d96610d01565b5b610da082610c32565b9050602081019050919050565b82818337600083830152505050565b6000610dcf610dca84610d7c565b610d61565b905082815260208101848484011115610deb57610dea610cfc565b5b610df6848285610dad565b509392505050565b600082601f830112610e1357610e12610cf7565b5b8135610e23848260208601610dbc565b91505092915050565b610e3581610c7c565b8114610e4057600080fd5b50565b600081359050610e5281610e2c565b92915050565b600080600060608486031215610e7157610e706109ce565b5b600084013567ffffffffffffffff811115610e8f57610e8e6109d3565b5b610e9b86828701610dfe565b9350506020610eac868287016109f9565b9250506040610ebd86828701610e43565b9150509250925092565b7f4e487b7100000000000000000000000000000000000000000000000000000000600052601260045260246000fd5b7f4e487b7100000000000000000000000000000000000000000000000000000000600052601160045260246000fd5b6000610f30826109d8565b9150610f3b836109d8565b925082610f4b57610f4a610ec7565b5b828204905092915050565b7f4e487b7100000000000000000000000000000000000000000000000000000000600052602260045260246000fd5b60006002820490506001821680610f9d57607f821691505b60208210811415610fb157610fb0610f56565b5b50919050565b6000610fc2826109d8565b91507fffffffffffffffffffffffffffffffffffffffffffffffffffffffffffffffff821415610ff557610ff4610ef6565b5b600182019050919050565b60006040820190506110156000830185610b26565b6110226020830184610afc565b939250505056fea26469706673582212207a549b3e88a4e3199b809a5707b4f784a6438066e2799e1512bf9ed9369f93f864736f6c634300080b0033a26469706673582212206622e50e047aa99ca82659679c55cd6facfd3daed41d42c36dfe4346e46cf75f64736f6c634300080b0033","opcodes":"PUSH1 0x80 PUSH1 0x40 MSTORE CALLVALUE DUP1 ISZERO PUSH2 0x10 JUMPI PUSH1 0x0 DUP1 REVERT JUMPDEST POP PUSH2 0x1623 DUP1 PUSH2 0x20 PUSH1 0x0 CODECOPY PUSH1 0x0 RETURN INVALID PUSH1 0x80 PUSH1 0x40 MSTORE CALLVALUE DUP1 ISZERO PUSH2 0x10 JUMPI PUSH1 0x0 DUP1 REVERT JUMPDEST POP PUSH1 0x4 CALLDATASIZE LT PUSH2 0x41 JUMPI PUSH1 0x0 CALLDATALOAD PUSH1 0xE0 SHR DUP1 PUSH4 0x339D50A5 EQ PUSH2 0x46 JUMPI DUP1 PUSH4 0x4ACB9D4F EQ PUSH2 0x76 JUMPI DUP1 PUSH4 0xA3303A75 EQ PUSH2 0x94 JUMPI JUMPDEST PUSH1 0x0 DUP1 REVERT JUMPDEST PUSH2 0x60 PUSH1 0x4 DUP1 CALLDATASIZE SUB DUP2 ADD SWAP1 PUSH2 0x5B SWAP2 SWAP1 PUSH2 0x266 JUMP JUMPDEST PUSH2 0xB0 JUMP JUMPDEST PUSH1 0x40 MLOAD PUSH2 0x6D SWAP2 SWAP1 PUSH2 0x2D4 JUMP JUMPDEST PUSH1 0x40 MLOAD DUP1 SWAP2 SUB SWAP1 RETURN JUMPDEST PUSH2 0x7E PUSH2 0xEF JUMP JUMPDEST PUSH1 0x40 MLOAD PUSH2 0x8B SWAP2 SWAP1 PUSH2 0x3AD JUMP JUMPDEST PUSH1 0x40 MLOAD DUP1 SWAP2 SUB SWAP1 RETURN JUMPDEST PUSH2 0xAE PUSH1 0x4 DUP1 CALLDATASIZE SUB DUP2 ADD SWAP1 PUSH2 0xA9 SWAP2 SWAP1 PUSH2 0x266 JUMP JUMPDEST PUSH2 0x17D JUMP JUMPDEST STOP JUMPDEST PUSH1 0x0 DUP2 DUP2 SLOAD DUP2 LT PUSH2 0xC0 JUMPI PUSH1 0x0 DUP1 REVERT JUMPDEST SWAP1 PUSH1 0x0 MSTORE PUSH1 0x20 PUSH1 0x0 KECCAK256 ADD PUSH1 0x0 SWAP2 POP SLOAD SWAP1 PUSH2 0x100 EXP SWAP1 DIV PUSH20 0xFFFFFFFFFFFFFFFFFFFFFFFFFFFFFFFFFFFFFFFF AND DUP2 JUMP JUMPDEST PUSH1 0x60 PUSH1 0x0 DUP1 SLOAD DUP1 PUSH1 0x20 MUL PUSH1 0x20 ADD PUSH1 0x40 MLOAD SWAP1 DUP2 ADD PUSH1 0x40 MSTORE DUP1 SWAP3 SWAP2 SWAP1 DUP2 DUP2 MSTORE PUSH1 0x20 ADD DUP3 DUP1 SLOAD DUP1 ISZERO PUSH2 0x173 JUMPI PUSH1 0x20 MUL DUP3 ADD SWAP2 SWAP1 PUSH1 0x0 MSTORE PUSH1 0x20 PUSH1 0x0 KECCAK256 SWAP1 JUMPDEST DUP2 PUSH1 0x0 SWAP1 SLOAD SWAP1 PUSH2 0x100 EXP SWAP1 DIV PUSH20 0xFFFFFFFFFFFFFFFFFFFFFFFFFFFFFFFFFFFFFFFF AND PUSH20 0xFFFFFFFFFFFFFFFFFFFFFFFFFFFFFFFFFFFFFFFF AND DUP2 MSTORE PUSH1 0x20 ADD SWAP1 PUSH1 0x1 ADD SWAP1 DUP1 DUP4 GT PUSH2 0x129 JUMPI JUMPDEST POP POP POP POP POP SWAP1 POP SWAP1 JUMP JUMPDEST PUSH1 0x0 DUP2 CALLER PUSH1 0x40 MLOAD PUSH2 0x18D SWAP1 PUSH2 0x21E JUMP JUMPDEST PUSH2 0x198 SWAP3 SWAP2 SWAP1 PUSH2 0x3DE JUMP JUMPDEST PUSH1 0x40 MLOAD DUP1 SWAP2 SUB SWAP1 PUSH1 0x0 CREATE DUP1 ISZERO DUP1 ISZERO PUSH2 0x1B4 JUMPI RETURNDATASIZE PUSH1 0x0 DUP1 RETURNDATACOPY RETURNDATASIZE PUSH1 0x0 REVERT JUMPDEST POP SWAP1 POP PUSH1 0x0 DUP2 SWAP1 DUP1 PUSH1 0x1 DUP2 SLOAD ADD DUP1 DUP3 SSTORE DUP1 SWAP2 POP POP PUSH1 0x1 SWAP1 SUB SWAP1 PUSH1 0x0 MSTORE PUSH1 0x20 PUSH1 0x0 KECCAK256 ADD PUSH1 0x0 SWAP1 SWAP2 SWAP1 SWAP2 SWAP1 SWAP2 PUSH2 0x100 EXP DUP2 SLOAD DUP2 PUSH20 0xFFFFFFFFFFFFFFFFFFFFFFFFFFFFFFFFFFFFFFFF MUL NOT AND SWAP1 DUP4 PUSH20 0xFFFFFFFFFFFFFFFFFFFFFFFFFFFFFFFFFFFFFFFF AND MUL OR SWAP1 SSTORE POP POP POP JUMP JUMPDEST PUSH2 0x11E6 DUP1 PUSH2 0x408 DUP4 CODECOPY ADD SWAP1 JUMP JUMPDEST PUSH1 0x0 DUP1 REVERT JUMPDEST PUSH1 0x0 DUP2 SWAP1 POP SWAP2 SWAP1 POP JUMP JUMPDEST PUSH2 0x243 DUP2 PUSH2 0x230 JUMP JUMPDEST DUP2 EQ PUSH2 0x24E JUMPI PUSH1 0x0 DUP1 REVERT JUMPDEST POP JUMP JUMPDEST PUSH1 0x0 DUP2 CALLDATALOAD SWAP1 POP PUSH2 0x260 DUP2 PUSH2 0x23A JUMP JUMPDEST SWAP3 SWAP2 POP POP JUMP JUMPDEST PUSH1 0x0 PUSH1 0x20 DUP3 DUP5 SUB SLT ISZERO PUSH2 0x27C JUMPI PUSH2 0x27B PUSH2 0x22B JUMP JUMPDEST JUMPDEST PUSH1 0x0 PUSH2 0x28A DUP5 DUP3 DUP6 ADD PUSH2 0x251 JUMP JUMPDEST SWAP2 POP POP SWAP3 SWAP2 POP POP JUMP JUMPDEST PUSH1 0x0 PUSH20 0xFFFFFFFFFFFFFFFFFFFFFFFFFFFFFFFFFFFFFFFF DUP3 AND SWAP1 POP SWAP2 SWAP1 POP JUMP JUMPDEST PUSH1 0x0 PUSH2 0x2BE DUP3 PUSH2 0x293 JUMP JUMPDEST SWAP1 POP SWAP2 SWAP1 POP JUMP JUMPDEST PUSH2 0x2CE DUP2 PUSH2 0x2B3 JUMP JUMPDEST DUP3 MSTORE POP POP JUMP JUMPDEST PUSH1 0x0 PUSH1 0x20 DUP3 ADD SWAP1 POP PUSH2 0x2E9 PUSH1 0x0 DUP4 ADD DUP5 PUSH2 0x2C5 JUMP JUMPDEST SWAP3 SWAP2 POP POP JUMP JUMPDEST PUSH1 0x0 DUP2 MLOAD SWAP1 POP SWAP2 SWAP1 POP JUMP JUMPDEST PUSH1 0x0 DUP3 DUP3 MSTORE PUSH1 0x20 DUP3 ADD SWAP1 POP SWAP3 SWAP2 POP POP JUMP JUMPDEST PUSH1 0x0 DUP2 SWAP1 POP PUSH1 0x20 DUP3 ADD SWAP1 POP SWAP2 SWAP1 POP JUMP JUMPDEST PUSH2 0x324 DUP2 PUSH2 0x2B3 JUMP JUMPDEST DUP3 MSTORE POP POP JUMP JUMPDEST PUSH1 0x0 PUSH2 0x336 DUP4 DUP4 PUSH2 0x31B JUMP JUMPDEST PUSH1 0x20 DUP4 ADD SWAP1 POP SWAP3 SWAP2 POP POP JUMP JUMPDEST PUSH1 0x0 PUSH1 0x20 DUP3 ADD SWAP1 POP SWAP2 SWAP1 POP JUMP JUMPDEST PUSH1 0x0 PUSH2 0x35A DUP3 PUSH2 0x2EF JUMP JUMPDEST PUSH2 0x364 DUP2 DUP6 PUSH2 0x2FA JUMP JUMPDEST SWAP4 POP PUSH2 0x36F DUP4 PUSH2 0x30B JUMP JUMPDEST DUP1 PUSH1 0x0 JUMPDEST DUP4 DUP2 LT ISZERO PUSH2 0x3A0 JUMPI DUP2 MLOAD PUSH2 0x387 DUP9 DUP3 PUSH2 0x32A JUMP JUMPDEST SWAP8 POP PUSH2 0x392 DUP4 PUSH2 0x342 JUMP JUMPDEST SWAP3 POP POP PUSH1 0x1 DUP2 ADD SWAP1 POP PUSH2 0x373 JUMP JUMPDEST POP DUP6 SWAP4 POP POP POP POP SWAP3 SWAP2 POP POP JUMP JUMPDEST PUSH1 0x0 PUSH1 0x20 DUP3 ADD SWAP1 POP DUP2 DUP2 SUB PUSH1 0x0 DUP4 ADD MSTORE PUSH2 0x3C7 DUP2 DUP5 PUSH2 0x34F JUMP JUMPDEST SWAP1 POP SWAP3 SWAP2 POP POP JUMP JUMPDEST PUSH2 0x3D8 DUP2 PUSH2 0x230 JUMP JUMPDEST DUP3 MSTORE POP POP JUMP JUMPDEST PUSH1 0x0 PUSH1 0x40 DUP3 ADD SWAP1 POP PUSH2 0x3F3 PUSH1 0x0 DUP4 ADD DUP6 PUSH2 0x3CF JUMP JUMPDEST PUSH2 0x400 PUSH1 0x20 DUP4 ADD DUP5 PUSH2 0x2C5 JUMP JUMPDEST SWAP4 SWAP3 POP POP POP JUMP INVALID PUSH1 0x80 PUSH1 0x40 MSTORE PUSH1 0x0 PUSH1 0x6 SSTORE CALLVALUE DUP1 ISZERO PUSH3 0x16 JUMPI PUSH1 0x0 DUP1 REVERT JUMPDEST POP PUSH1 0x40 MLOAD PUSH3 0x11E6 CODESIZE SUB DUP1 PUSH3 0x11E6 DUP4 CODECOPY DUP2 DUP2 ADD PUSH1 0x40 MSTORE DUP2 ADD SWAP1 PUSH3 0x3C SWAP2 SWAP1 PUSH3 0x130 JUMP JUMPDEST DUP1 PUSH1 0x0 DUP1 PUSH2 0x100 EXP DUP2 SLOAD DUP2 PUSH20 0xFFFFFFFFFFFFFFFFFFFFFFFFFFFFFFFFFFFFFFFF MUL NOT AND SWAP1 DUP4 PUSH20 0xFFFFFFFFFFFFFFFFFFFFFFFFFFFFFFFFFFFFFFFF AND MUL OR SWAP1 SSTORE POP DUP2 PUSH1 0x1 DUP2 SWAP1 SSTORE POP POP POP PUSH3 0x177 JUMP JUMPDEST PUSH1 0x0 DUP1 REVERT JUMPDEST PUSH1 0x0 DUP2 SWAP1 POP SWAP2 SWAP1 POP JUMP JUMPDEST PUSH3 0xA5 DUP2 PUSH3 0x90 JUMP JUMPDEST DUP2 EQ PUSH3 0xB1 JUMPI PUSH1 0x0 DUP1 REVERT JUMPDEST POP JUMP JUMPDEST PUSH1 0x0 DUP2 MLOAD SWAP1 POP PUSH3 0xC5 DUP2 PUSH3 0x9A JUMP JUMPDEST SWAP3 SWAP2 POP POP JUMP JUMPDEST PUSH1 0x0 PUSH20 0xFFFFFFFFFFFFFFFFFFFFFFFFFFFFFFFFFFFFFFFF DUP3 AND SWAP1 POP SWAP2 SWAP1 POP JUMP JUMPDEST PUSH1 0x0 PUSH3 0xF8 DUP3 PUSH3 0xCB JUMP JUMPDEST SWAP1 POP SWAP2 SWAP1 POP JUMP JUMPDEST PUSH3 0x10A DUP2 PUSH3 0xEB JUMP JUMPDEST DUP2 EQ PUSH3 0x116 JUMPI PUSH1 0x0 DUP1 REVERT JUMPDEST POP JUMP JUMPDEST PUSH1 0x0 DUP2 MLOAD SWAP1 POP PUSH3 0x12A DUP2 PUSH3 0xFF JUMP JUMPDEST SWAP3 SWAP2 POP POP JUMP JUMPDEST PUSH1 0x0 DUP1 PUSH1 0x40 DUP4 DUP6 SUB SLT ISZERO PUSH3 0x14A JUMPI PUSH3 0x149 PUSH3 0x8B JUMP JUMPDEST JUMPDEST PUSH1 0x0 PUSH3 0x15A DUP6 DUP3 DUP7 ADD PUSH3 0xB4 JUMP JUMPDEST SWAP3 POP POP PUSH1 0x20 PUSH3 0x16D DUP6 DUP3 DUP7 ADD PUSH3 0x119 JUMP JUMPDEST SWAP2 POP POP SWAP3 POP SWAP3 SWAP1 POP JUMP JUMPDEST PUSH2 0x105F DUP1 PUSH3 0x187 PUSH1 0x0 CODECOPY PUSH1 0x0 RETURN INVALID PUSH1 0x80 PUSH1 0x40 MSTORE PUSH1 0x4 CALLDATASIZE LT PUSH2 0xA7 JUMPI PUSH1 0x0 CALLDATALOAD PUSH1 0xE0 SHR DUP1 PUSH4 0x81D12C58 GT PUSH2 0x64 JUMPI DUP1 PUSH4 0x81D12C58 EQ PUSH2 0x1D4 JUMPI DUP1 PUSH4 0x8A9CFD55 EQ PUSH2 0x215 JUMPI DUP1 PUSH4 0x937E09B1 EQ PUSH2 0x23E JUMPI DUP1 PUSH4 0xD7BB99BA EQ PUSH2 0x269 JUMPI DUP1 PUSH4 0xD7D1BBDB EQ PUSH2 0x273 JUMPI DUP1 PUSH4 0xE9F146A3 EQ PUSH2 0x29C JUMPI PUSH2 0xA7 JUMP JUMPDEST DUP1 PUSH4 0x3441006 EQ PUSH2 0xAC JUMPI DUP1 PUSH4 0x34B66460 EQ PUSH2 0xD5 JUMPI DUP1 PUSH4 0x3FAD1834 EQ PUSH2 0x112 JUMPI DUP1 PUSH4 0x4051DDAC EQ PUSH2 0x13D JUMPI DUP1 PUSH4 0x481C6A75 EQ PUSH2 0x16C JUMPI DUP1 PUSH4 0x56C31637 EQ PUSH2 0x197 JUMPI JUMPDEST PUSH1 0x0 DUP1 REVERT JUMPDEST CALLVALUE DUP1 ISZERO PUSH2 0xB8 JUMPI PUSH1 0x0 DUP1 REVERT JUMPDEST POP PUSH2 0xD3 PUSH1 0x4 DUP1 CALLDATASIZE SUB DUP2 ADD SWAP1 PUSH2 0xCE SWAP2 SWAP1 PUSH2 0xA0E JUMP JUMPDEST PUSH2 0x2C7 JUMP JUMPDEST STOP JUMPDEST CALLVALUE DUP1 ISZERO PUSH2 0xE1 JUMPI PUSH1 0x0 DUP1 REVERT JUMPDEST POP PUSH2 0xFC PUSH1 0x4 DUP1 CALLDATASIZE SUB DUP2 ADD SWAP1 PUSH2 0xF7 SWAP2 SWAP1 PUSH2 0xA99 JUMP JUMPDEST PUSH2 0x400 JUMP JUMPDEST PUSH1 0x40 MLOAD PUSH2 0x109 SWAP2 SWAP1 PUSH2 0xAE1 JUMP JUMPDEST PUSH1 0x40 MLOAD DUP1 SWAP2 SUB SWAP1 RETURN JUMPDEST CALLVALUE DUP1 ISZERO PUSH2 0x11E JUMPI PUSH1 0x0 DUP1 REVERT JUMPDEST POP PUSH2 0x127 PUSH2 0x420 JUMP JUMPDEST PUSH1 0x40 MLOAD PUSH2 0x134 SWAP2 SWAP1 PUSH2 0xB0B JUMP JUMPDEST PUSH1 0x40 MLOAD DUP1 SWAP2 SUB SWAP1 RETURN JUMPDEST CALLVALUE DUP1 ISZERO PUSH2 0x149 JUMPI PUSH1 0x0 DUP1 REVERT JUMPDEST POP PUSH2 0x152 PUSH2 0x42A JUMP JUMPDEST PUSH1 0x40 MLOAD PUSH2 0x163 SWAP6 SWAP5 SWAP4 SWAP3 SWAP2 SWAP1 PUSH2 0xB35 JUMP JUMPDEST PUSH1 0x40 MLOAD DUP1 SWAP2 SUB SWAP1 RETURN JUMPDEST CALLVALUE DUP1 ISZERO PUSH2 0x178 JUMPI PUSH1 0x0 DUP1 REVERT JUMPDEST POP PUSH2 0x181 PUSH2 0x46E JUMP JUMPDEST PUSH1 0x40 MLOAD PUSH2 0x18E SWAP2 SWAP1 PUSH2 0xB88 JUMP JUMPDEST PUSH1 0x40 MLOAD DUP1 SWAP2 SUB SWAP1 RETURN JUMPDEST CALLVALUE DUP1 ISZERO PUSH2 0x1A3 JUMPI PUSH1 0x0 DUP1 REVERT JUMPDEST POP PUSH2 0x1BE PUSH1 0x4 DUP1 CALLDATASIZE SUB DUP2 ADD SWAP1 PUSH2 0x1B9 SWAP2 SWAP1 PUSH2 0xBA3 JUMP JUMPDEST PUSH2 0x492 JUMP JUMPDEST PUSH1 0x40 MLOAD PUSH2 0x1CB SWAP2 SWAP1 PUSH2 0xAE1 JUMP JUMPDEST PUSH1 0x40 MLOAD DUP1 SWAP2 SUB SWAP1 RETURN JUMPDEST CALLVALUE DUP1 ISZERO PUSH2 0x1E0 JUMPI PUSH1 0x0 DUP1 REVERT JUMPDEST POP PUSH2 0x1FB PUSH1 0x4 DUP1 CALLDATASIZE SUB DUP2 ADD SWAP1 PUSH2 0x1F6 SWAP2 SWAP1 PUSH2 0xA0E JUMP JUMPDEST PUSH2 0x502 JUMP JUMPDEST PUSH1 0x40 MLOAD PUSH2 0x20C SWAP6 SWAP5 SWAP4 SWAP3 SWAP2 SWAP1 PUSH2 0xC9D JUMP JUMPDEST PUSH1 0x40 MLOAD DUP1 SWAP2 SUB SWAP1 RETURN JUMPDEST CALLVALUE DUP1 ISZERO PUSH2 0x221 JUMPI PUSH1 0x0 DUP1 REVERT JUMPDEST POP PUSH2 0x23C PUSH1 0x4 DUP1 CALLDATASIZE SUB DUP2 ADD SWAP1 PUSH2 0x237 SWAP2 SWAP1 PUSH2 0xE58 JUMP JUMPDEST PUSH2 0x5ED JUMP JUMPDEST STOP JUMPDEST CALLVALUE DUP1 ISZERO PUSH2 0x24A JUMPI PUSH1 0x0 DUP1 REVERT JUMPDEST POP PUSH2 0x253 PUSH2 0x757 JUMP JUMPDEST PUSH1 0x40 MLOAD PUSH2 0x260 SWAP2 SWAP1 PUSH2 0xB0B JUMP JUMPDEST PUSH1 0x40 MLOAD DUP1 SWAP2 SUB SWAP1 RETURN JUMPDEST PUSH2 0x271 PUSH2 0x75D JUMP JUMPDEST STOP JUMPDEST CALLVALUE DUP1 ISZERO PUSH2 0x27F JUMPI PUSH1 0x0 DUP1 REVERT JUMPDEST POP PUSH2 0x29A PUSH1 0x4 DUP1 CALLDATASIZE SUB DUP2 ADD SWAP1 PUSH2 0x295 SWAP2 SWAP1 PUSH2 0xA0E JUMP JUMPDEST PUSH2 0x7DD JUMP JUMPDEST STOP JUMPDEST CALLVALUE DUP1 ISZERO PUSH2 0x2A8 JUMPI PUSH1 0x0 DUP1 REVERT JUMPDEST POP PUSH2 0x2B1 PUSH2 0x91B JUMP JUMPDEST PUSH1 0x40 MLOAD PUSH2 0x2BE SWAP2 SWAP1 PUSH2 0xB0B JUMP JUMPDEST PUSH1 0x40 MLOAD DUP1 SWAP2 SUB SWAP1 RETURN JUMPDEST PUSH1 0x0 DUP1 SLOAD SWAP1 PUSH2 0x100 EXP SWAP1 DIV PUSH20 0xFFFFFFFFFFFFFFFFFFFFFFFFFFFFFFFFFFFFFFFF AND PUSH20 0xFFFFFFFFFFFFFFFFFFFFFFFFFFFFFFFFFFFFFFFF AND CALLER PUSH20 0xFFFFFFFFFFFFFFFFFFFFFFFFFFFFFFFFFFFFFFFF AND EQ PUSH2 0x31F JUMPI PUSH1 0x0 DUP1 REVERT JUMPDEST PUSH1 0x0 PUSH1 0x3 PUSH1 0x0 DUP4 DUP2 MSTORE PUSH1 0x20 ADD SWAP1 DUP2 MSTORE PUSH1 0x20 ADD PUSH1 0x0 KECCAK256 SWAP1 POP DUP1 PUSH1 0x2 ADD PUSH1 0x14 SWAP1 SLOAD SWAP1 PUSH2 0x100 EXP SWAP1 DIV PUSH1 0xFF AND ISZERO PUSH2 0x352 JUMPI PUSH1 0x0 DUP1 REVERT JUMPDEST PUSH1 0x2 PUSH1 0x4 SLOAD PUSH2 0x361 SWAP2 SWAP1 PUSH2 0xF25 JUMP JUMPDEST DUP2 PUSH1 0x3 ADD SLOAD GT PUSH2 0x370 JUMPI PUSH1 0x0 DUP1 REVERT JUMPDEST DUP1 PUSH1 0x2 ADD PUSH1 0x0 SWAP1 SLOAD SWAP1 PUSH2 0x100 EXP SWAP1 DIV PUSH20 0xFFFFFFFFFFFFFFFFFFFFFFFFFFFFFFFFFFFFFFFF AND PUSH20 0xFFFFFFFFFFFFFFFFFFFFFFFFFFFFFFFFFFFFFFFF AND PUSH2 0x8FC DUP3 PUSH1 0x1 ADD SLOAD SWAP1 DUP2 ISZERO MUL SWAP1 PUSH1 0x40 MLOAD PUSH1 0x0 PUSH1 0x40 MLOAD DUP1 DUP4 SUB DUP2 DUP6 DUP9 DUP9 CALL SWAP4 POP POP POP POP ISZERO DUP1 ISZERO PUSH2 0x3DE JUMPI RETURNDATASIZE PUSH1 0x0 DUP1 RETURNDATACOPY RETURNDATASIZE PUSH1 0x0 REVERT JUMPDEST POP PUSH1 0x1 DUP2 PUSH1 0x2 ADD PUSH1 0x14 PUSH2 0x100 EXP DUP2 SLOAD DUP2 PUSH1 0xFF MUL NOT AND SWAP1 DUP4 ISZERO ISZERO MUL OR SWAP1 SSTORE POP POP POP JUMP JUMPDEST PUSH1 0x2 PUSH1 0x20 MSTORE DUP1 PUSH1 0x0 MSTORE PUSH1 0x40 PUSH1 0x0 KECCAK256 PUSH1 0x0 SWAP2 POP SLOAD SWAP1 PUSH2 0x100 EXP SWAP1 DIV PUSH1 0xFF AND DUP2 JUMP JUMPDEST PUSH1 0x0 PUSH1 0x5 SLOAD SWAP1 POP SWAP1 JUMP JUMPDEST PUSH1 0x0 DUP1 PUSH1 0x0 DUP1 PUSH1 0x0 PUSH1 0x1 SLOAD SELFBALANCE PUSH1 0x5 SLOAD PUSH1 0x4 SLOAD PUSH1 0x0 DUP1 SLOAD SWAP1 PUSH2 0x100 EXP SWAP1 DIV PUSH20 0xFFFFFFFFFFFFFFFFFFFFFFFFFFFFFFFFFFFFFFFF AND SWAP5 POP SWAP5 POP SWAP5 POP SWAP5 POP SWAP5 POP SWAP1 SWAP2 SWAP3 SWAP4 SWAP5 JUMP JUMPDEST PUSH1 0x0 DUP1 SLOAD SWAP1 PUSH2 0x100 EXP SWAP1 DIV PUSH20 0xFFFFFFFFFFFFFFFFFFFFFFFFFFFFFFFFFFFFFFFF AND DUP2 JUMP JUMPDEST PUSH1 0x0 DUP1 PUSH1 0x3 PUSH1 0x0 DUP6 DUP2 MSTORE PUSH1 0x20 ADD SWAP1 DUP2 MSTORE PUSH1 0x20 ADD PUSH1 0x0 KECCAK256 SWAP1 POP DUP1 PUSH1 0x4 ADD PUSH1 0x0 DUP5 PUSH20 0xFFFFFFFFFFFFFFFFFFFFFFFFFFFFFFFFFFFFFFFF AND PUSH20 0xFFFFFFFFFFFFFFFFFFFFFFFFFFFFFFFFFFFFFFFF AND DUP2 MSTORE PUSH1 0x20 ADD SWAP1 DUP2 MSTORE PUSH1 0x20 ADD PUSH1 0x0 KECCAK256 PUSH1 0x0 SWAP1 SLOAD SWAP1 PUSH2 0x100 EXP SWAP1 DIV PUSH1 0xFF AND SWAP2 POP POP SWAP3 SWAP2 POP POP JUMP JUMPDEST PUSH1 0x3 PUSH1 0x20 MSTORE DUP1 PUSH1 0x0 MSTORE PUSH1 0x40 PUSH1 0x0 KECCAK256 PUSH1 0x0 SWAP2 POP SWAP1 POP DUP1 PUSH1 0x0 ADD DUP1 SLOAD PUSH2 0x525 SWAP1 PUSH2 0xF85 JUMP JUMPDEST DUP1 PUSH1 0x1F ADD PUSH1 0x20 DUP1 SWAP2 DIV MUL PUSH1 0x20 ADD PUSH1 0x40 MLOAD SWAP1 DUP2 ADD PUSH1 0x40 MSTORE DUP1 SWAP3 SWAP2 SWAP1 DUP2 DUP2 MSTORE PUSH1 0x20 ADD DUP3 DUP1 SLOAD PUSH2 0x551 SWAP1 PUSH2 0xF85 JUMP JUMPDEST DUP1 ISZERO PUSH2 0x59E JUMPI DUP1 PUSH1 0x1F LT PUSH2 0x573 JUMPI PUSH2 0x100 DUP1 DUP4 SLOAD DIV MUL DUP4 MSTORE SWAP2 PUSH1 0x20 ADD SWAP2 PUSH2 0x59E JUMP JUMPDEST DUP3 ADD SWAP2 SWAP1 PUSH1 0x0 MSTORE PUSH1 0x20 PUSH1 0x0 KECCAK256 SWAP1 JUMPDEST DUP2 SLOAD DUP2 MSTORE SWAP1 PUSH1 0x1 ADD SWAP1 PUSH1 0x20 ADD DUP1 DUP4 GT PUSH2 0x581 JUMPI DUP3 SWAP1 SUB PUSH1 0x1F AND DUP3 ADD SWAP2 JUMPDEST POP POP POP POP POP SWAP1 DUP1 PUSH1 0x1 ADD SLOAD SWAP1 DUP1 PUSH1 0x2 ADD PUSH1 0x0 SWAP1 SLOAD SWAP1 PUSH2 0x100 EXP SWAP1 DIV PUSH20 0xFFFFFFFFFFFFFFFFFFFFFFFFFFFFFFFFFFFFFFFF AND SWAP1 DUP1 PUSH1 0x2 ADD PUSH1 0x14 SWAP1 SLOAD SWAP1 PUSH2 0x100 EXP SWAP1 DIV PUSH1 0xFF AND SWAP1 DUP1 PUSH1 0x3 ADD SLOAD SWAP1 POP DUP6 JUMP JUMPDEST PUSH1 0x0 DUP1 SLOAD SWAP1 PUSH2 0x100 EXP SWAP1 DIV PUSH20 0xFFFFFFFFFFFFFFFFFFFFFFFFFFFFFFFFFFFFFFFF AND PUSH20 0xFFFFFFFFFFFFFFFFFFFFFFFFFFFFFFFFFFFFFFFF AND CALLER PUSH20 0xFFFFFFFFFFFFFFFFFFFFFFFFFFFFFFFFFFFFFFFF AND EQ PUSH2 0x645 JUMPI PUSH1 0x0 DUP1 REVERT JUMPDEST PUSH1 0x0 PUSH1 0x3 PUSH1 0x0 PUSH1 0x6 PUSH1 0x0 DUP2 SLOAD DUP1 SWAP3 SWAP2 SWAP1 PUSH2 0x65E SWAP1 PUSH2 0xFB7 JUMP JUMPDEST SWAP2 SWAP1 POP SSTORE DUP2 MSTORE PUSH1 0x20 ADD SWAP1 DUP2 MSTORE PUSH1 0x20 ADD PUSH1 0x0 KECCAK256 SWAP1 POP DUP4 DUP2 PUSH1 0x0 ADD SWAP1 DUP1 MLOAD SWAP1 PUSH1 0x20 ADD SWAP1 PUSH2 0x68A SWAP3 SWAP2 SWAP1 PUSH2 0x921 JUMP JUMPDEST POP DUP3 DUP2 PUSH1 0x1 ADD DUP2 SWAP1 SSTORE POP DUP2 DUP2 PUSH1 0x2 ADD PUSH1 0x0 PUSH2 0x100 EXP DUP2 SLOAD DUP2 PUSH20 0xFFFFFFFFFFFFFFFFFFFFFFFFFFFFFFFFFFFFFFFF MUL NOT AND SWAP1 DUP4 PUSH20 0xFFFFFFFFFFFFFFFFFFFFFFFFFFFFFFFFFFFFFFFF AND MUL OR SWAP1 SSTORE POP PUSH1 0x0 DUP2 PUSH1 0x2 ADD PUSH1 0x14 PUSH2 0x100 EXP DUP2 SLOAD DUP2 PUSH1 0xFF MUL NOT AND SWAP1 DUP4 ISZERO ISZERO MUL OR SWAP1 SSTORE POP PUSH1 0x0 DUP2 PUSH1 0x3 ADD DUP2 SWAP1 SSTORE POP PUSH1 0x5 PUSH1 0x0 DUP2 SLOAD DUP1 SWAP3 SWAP2 SWAP1 PUSH2 0x711 SWAP1 PUSH2 0xFB7 JUMP JUMPDEST SWAP2 SWAP1 POP SSTORE POP PUSH32 0x859BC031F5D72B599E7F226E583D1C75987C71977EC43A20EFEF794391F8E938 CALLER PUSH1 0x6 SLOAD PUSH1 0x40 MLOAD PUSH2 0x749 SWAP3 SWAP2 SWAP1 PUSH2 0x1000 JUMP JUMPDEST PUSH1 0x40 MLOAD DUP1 SWAP2 SUB SWAP1 LOG1 POP POP POP POP JUMP JUMPDEST PUSH1 0x1 SLOAD DUP2 JUMP JUMPDEST PUSH1 0x1 SLOAD CALLVALUE GT PUSH2 0x76B JUMPI PUSH1 0x0 DUP1 REVERT JUMPDEST PUSH1 0x1 PUSH1 0x2 PUSH1 0x0 CALLER PUSH20 0xFFFFFFFFFFFFFFFFFFFFFFFFFFFFFFFFFFFFFFFF AND PUSH20 0xFFFFFFFFFFFFFFFFFFFFFFFFFFFFFFFFFFFFFFFF AND DUP2 MSTORE PUSH1 0x20 ADD SWAP1 DUP2 MSTORE PUSH1 0x20 ADD PUSH1 0x0 KECCAK256 PUSH1 0x0 PUSH2 0x100 EXP DUP2 SLOAD DUP2 PUSH1 0xFF MUL NOT AND SWAP1 DUP4 ISZERO ISZERO MUL OR SWAP1 SSTORE POP PUSH1 0x4 PUSH1 0x0 DUP2 SLOAD DUP1 SWAP3 SWAP2 SWAP1 PUSH2 0x7D6 SWAP1 PUSH2 0xFB7 JUMP JUMPDEST SWAP2 SWAP1 POP SSTORE POP JUMP JUMPDEST PUSH1 0x2 PUSH1 0x0 CALLER PUSH20 0xFFFFFFFFFFFFFFFFFFFFFFFFFFFFFFFFFFFFFFFF AND PUSH20 0xFFFFFFFFFFFFFFFFFFFFFFFFFFFFFFFFFFFFFFFF AND DUP2 MSTORE PUSH1 0x20 ADD SWAP1 DUP2 MSTORE PUSH1 0x20 ADD PUSH1 0x0 KECCAK256 PUSH1 0x0 SWAP1 SLOAD SWAP1 PUSH2 0x100 EXP SWAP1 DIV PUSH1 0xFF AND PUSH2 0x833 JUMPI PUSH1 0x0 DUP1 REVERT JUMPDEST PUSH1 0x0 PUSH1 0x3 PUSH1 0x0 DUP4 DUP2 MSTORE PUSH1 0x20 ADD SWAP1 DUP2 MSTORE PUSH1 0x20 ADD PUSH1 0x0 KECCAK256 SWAP1 POP DUP1 PUSH1 0x4 ADD PUSH1 0x0 CALLER PUSH20 0xFFFFFFFFFFFFFFFFFFFFFFFFFFFFFFFFFFFFFFFF AND PUSH20 0xFFFFFFFFFFFFFFFFFFFFFFFFFFFFFFFFFFFFFFFF AND DUP2 MSTORE PUSH1 0x20 ADD SWAP1 DUP2 MSTORE PUSH1 0x20 ADD PUSH1 0x0 KECCAK256 PUSH1 0x0 SWAP1 SLOAD SWAP1 PUSH2 0x100 EXP SWAP1 DIV PUSH1 0xFF AND ISZERO PUSH2 0x8A3 JUMPI PUSH1 0x0 DUP1 REVERT JUMPDEST PUSH1 0x1 DUP2 PUSH1 0x4 ADD PUSH1 0x0 CALLER PUSH20 0xFFFFFFFFFFFFFFFFFFFFFFFFFFFFFFFFFFFFFFFF AND PUSH20 0xFFFFFFFFFFFFFFFFFFFFFFFFFFFFFFFFFFFFFFFF AND DUP2 MSTORE PUSH1 0x20 ADD SWAP1 DUP2 MSTORE PUSH1 0x20 ADD PUSH1 0x0 KECCAK256 PUSH1 0x0 PUSH2 0x100 EXP DUP2 SLOAD DUP2 PUSH1 0xFF MUL NOT AND SWAP1 DUP4 ISZERO ISZERO MUL OR SWAP1 SSTORE POP DUP1 PUSH1 0x3 ADD PUSH1 0x0 DUP2 SLOAD DUP1 SWAP3 SWAP2 SWAP1 PUSH2 0x912 SWAP1 PUSH2 0xFB7 JUMP JUMPDEST SWAP2 SWAP1 POP SSTORE POP POP POP JUMP JUMPDEST PUSH1 0x4 SLOAD DUP2 JUMP JUMPDEST DUP3 DUP1 SLOAD PUSH2 0x92D SWAP1 PUSH2 0xF85 JUMP JUMPDEST SWAP1 PUSH1 0x0 MSTORE PUSH1 0x20 PUSH1 0x0 KECCAK256 SWAP1 PUSH1 0x1F ADD PUSH1 0x20 SWAP1 DIV DUP2 ADD SWAP3 DUP3 PUSH2 0x94F JUMPI PUSH1 0x0 DUP6 SSTORE PUSH2 0x996 JUMP JUMPDEST DUP3 PUSH1 0x1F LT PUSH2 0x968 JUMPI DUP1 MLOAD PUSH1 0xFF NOT AND DUP4 DUP1 ADD OR DUP6 SSTORE PUSH2 0x996 JUMP JUMPDEST DUP3 DUP1 ADD PUSH1 0x1 ADD DUP6 SSTORE DUP3 ISZERO PUSH2 0x996 JUMPI SWAP2 DUP3 ADD JUMPDEST DUP3 DUP2 GT ISZERO PUSH2 0x995 JUMPI DUP3 MLOAD DUP3 SSTORE SWAP2 PUSH1 0x20 ADD SWAP2 SWAP1 PUSH1 0x1 ADD SWAP1 PUSH2 0x97A JUMP JUMPDEST JUMPDEST POP SWAP1 POP PUSH2 0x9A3 SWAP2 SWAP1 PUSH2 0x9A7 JUMP JUMPDEST POP SWAP1 JUMP JUMPDEST JUMPDEST DUP1 DUP3 GT ISZERO PUSH2 0x9C0 JUMPI PUSH1 0x0 DUP2 PUSH1 0x0 SWAP1 SSTORE POP PUSH1 0x1 ADD PUSH2 0x9A8 JUMP JUMPDEST POP SWAP1 JUMP JUMPDEST PUSH1 0x0 PUSH1 0x40 MLOAD SWAP1 POP SWAP1 JUMP JUMPDEST PUSH1 0x0 DUP1 REVERT JUMPDEST PUSH1 0x0 DUP1 REVERT JUMPDEST PUSH1 0x0 DUP2 SWAP1 POP SWAP2 SWAP1 POP JUMP JUMPDEST PUSH2 0x9EB DUP2 PUSH2 0x9D8 JUMP JUMPDEST DUP2 EQ PUSH2 0x9F6 JUMPI PUSH1 0x0 DUP1 REVERT JUMPDEST POP JUMP JUMPDEST PUSH1 0x0 DUP2 CALLDATALOAD SWAP1 POP PUSH2 0xA08 DUP2 PUSH2 0x9E2 JUMP JUMPDEST SWAP3 SWAP2 POP POP JUMP JUMPDEST PUSH1 0x0 PUSH1 0x20 DUP3 DUP5 SUB SLT ISZERO PUSH2 0xA24 JUMPI PUSH2 0xA23 PUSH2 0x9CE JUMP JUMPDEST JUMPDEST PUSH1 0x0 PUSH2 0xA32 DUP5 DUP3 DUP6 ADD PUSH2 0x9F9 JUMP JUMPDEST SWAP2 POP POP SWAP3 SWAP2 POP POP JUMP JUMPDEST PUSH1 0x0 PUSH20 0xFFFFFFFFFFFFFFFFFFFFFFFFFFFFFFFFFFFFFFFF DUP3 AND SWAP1 POP SWAP2 SWAP1 POP JUMP JUMPDEST PUSH1 0x0 PUSH2 0xA66 DUP3 PUSH2 0xA3B JUMP JUMPDEST SWAP1 POP SWAP2 SWAP1 POP JUMP JUMPDEST PUSH2 0xA76 DUP2 PUSH2 0xA5B JUMP JUMPDEST DUP2 EQ PUSH2 0xA81 JUMPI PUSH1 0x0 DUP1 REVERT JUMPDEST POP JUMP JUMPDEST PUSH1 0x0 DUP2 CALLDATALOAD SWAP1 POP PUSH2 0xA93 DUP2 PUSH2 0xA6D JUMP JUMPDEST SWAP3 SWAP2 POP POP JUMP JUMPDEST PUSH1 0x0 PUSH1 0x20 DUP3 DUP5 SUB SLT ISZERO PUSH2 0xAAF JUMPI PUSH2 0xAAE PUSH2 0x9CE JUMP JUMPDEST JUMPDEST PUSH1 0x0 PUSH2 0xABD DUP5 DUP3 DUP6 ADD PUSH2 0xA84 JUMP JUMPDEST SWAP2 POP POP SWAP3 SWAP2 POP POP JUMP JUMPDEST PUSH1 0x0 DUP2 ISZERO ISZERO SWAP1 POP SWAP2 SWAP1 POP JUMP JUMPDEST PUSH2 0xADB DUP2 PUSH2 0xAC6 JUMP JUMPDEST DUP3 MSTORE POP POP JUMP JUMPDEST PUSH1 0x0 PUSH1 0x20 DUP3 ADD SWAP1 POP PUSH2 0xAF6 PUSH1 0x0 DUP4 ADD DUP5 PUSH2 0xAD2 JUMP JUMPDEST SWAP3 SWAP2 POP POP JUMP JUMPDEST PUSH2 0xB05 DUP2 PUSH2 0x9D8 JUMP JUMPDEST DUP3 MSTORE POP POP JUMP JUMPDEST PUSH1 0x0 PUSH1 0x20 DUP3 ADD SWAP1 POP PUSH2 0xB20 PUSH1 0x0 DUP4 ADD DUP5 PUSH2 0xAFC JUMP JUMPDEST SWAP3 SWAP2 POP POP JUMP JUMPDEST PUSH2 0xB2F DUP2 PUSH2 0xA5B JUMP JUMPDEST DUP3 MSTORE POP POP JUMP JUMPDEST PUSH1 0x0 PUSH1 0xA0 DUP3 ADD SWAP1 POP PUSH2 0xB4A PUSH1 0x0 DUP4 ADD DUP9 PUSH2 0xAFC JUMP JUMPDEST PUSH2 0xB57 PUSH1 0x20 DUP4 ADD DUP8 PUSH2 0xAFC JUMP JUMPDEST PUSH2 0xB64 PUSH1 0x40 DUP4 ADD DUP7 PUSH2 0xAFC JUMP JUMPDEST PUSH2 0xB71 PUSH1 0x60 DUP4 ADD DUP6 PUSH2 0xAFC JUMP JUMPDEST PUSH2 0xB7E PUSH1 0x80 DUP4 ADD DUP5 PUSH2 0xB26 JUMP JUMPDEST SWAP7 SWAP6 POP POP POP POP POP POP JUMP JUMPDEST PUSH1 0x0 PUSH1 0x20 DUP3 ADD SWAP1 POP PUSH2 0xB9D PUSH1 0x0 DUP4 ADD DUP5 PUSH2 0xB26 JUMP JUMPDEST SWAP3 SWAP2 POP POP JUMP JUMPDEST PUSH1 0x0 DUP1 PUSH1 0x40 DUP4 DUP6 SUB SLT ISZERO PUSH2 0xBBA JUMPI PUSH2 0xBB9 PUSH2 0x9CE JUMP JUMPDEST JUMPDEST PUSH1 0x0 PUSH2 0xBC8 DUP6 DUP3 DUP7 ADD PUSH2 0x9F9 JUMP JUMPDEST SWAP3 POP POP PUSH1 0x20 PUSH2 0xBD9 DUP6 DUP3 DUP7 ADD PUSH2 0xA84 JUMP JUMPDEST SWAP2 POP POP SWAP3 POP SWAP3 SWAP1 POP JUMP JUMPDEST PUSH1 0x0 DUP2 MLOAD SWAP1 POP SWAP2 SWAP1 POP JUMP JUMPDEST PUSH1 0x0 DUP3 DUP3 MSTORE PUSH1 0x20 DUP3 ADD SWAP1 POP SWAP3 SWAP2 POP POP JUMP JUMPDEST PUSH1 0x0 JUMPDEST DUP4 DUP2 LT ISZERO PUSH2 0xC1D JUMPI DUP1 DUP3 ADD MLOAD DUP2 DUP5 ADD MSTORE PUSH1 0x20 DUP2 ADD SWAP1 POP PUSH2 0xC02 JUMP JUMPDEST DUP4 DUP2 GT ISZERO PUSH2 0xC2C JUMPI PUSH1 0x0 DUP5 DUP5 ADD MSTORE JUMPDEST POP POP POP POP JUMP JUMPDEST PUSH1 0x0 PUSH1 0x1F NOT PUSH1 0x1F DUP4 ADD AND SWAP1 POP SWAP2 SWAP1 POP JUMP JUMPDEST PUSH1 0x0 PUSH2 0xC4E DUP3 PUSH2 0xBE3 JUMP JUMPDEST PUSH2 0xC58 DUP2 DUP6 PUSH2 0xBEE JUMP JUMPDEST SWAP4 POP PUSH2 0xC68 DUP2 DUP6 PUSH1 0x20 DUP7 ADD PUSH2 0xBFF JUMP JUMPDEST PUSH2 0xC71 DUP2 PUSH2 0xC32 JUMP JUMPDEST DUP5 ADD SWAP2 POP POP SWAP3 SWAP2 POP POP JUMP JUMPDEST PUSH1 0x0 PUSH2 0xC87 DUP3 PUSH2 0xA3B JUMP JUMPDEST SWAP1 POP SWAP2 SWAP1 POP JUMP JUMPDEST PUSH2 0xC97 DUP2 PUSH2 0xC7C JUMP JUMPDEST DUP3 MSTORE POP POP JUMP JUMPDEST PUSH1 0x0 PUSH1 0xA0 DUP3 ADD SWAP1 POP DUP2 DUP2 SUB PUSH1 0x0 DUP4 ADD MSTORE PUSH2 0xCB7 DUP2 DUP9 PUSH2 0xC43 JUMP JUMPDEST SWAP1 POP PUSH2 0xCC6 PUSH1 0x20 DUP4 ADD DUP8 PUSH2 0xAFC JUMP JUMPDEST PUSH2 0xCD3 PUSH1 0x40 DUP4 ADD DUP7 PUSH2 0xC8E JUMP JUMPDEST PUSH2 0xCE0 PUSH1 0x60 DUP4 ADD DUP6 PUSH2 0xAD2 JUMP JUMPDEST PUSH2 0xCED PUSH1 0x80 DUP4 ADD DUP5 PUSH2 0xAFC JUMP JUMPDEST SWAP7 SWAP6 POP POP POP POP POP POP JUMP JUMPDEST PUSH1 0x0 DUP1 REVERT JUMPDEST PUSH1 0x0 DUP1 REVERT JUMPDEST PUSH32 0x4E487B7100000000000000000000000000000000000000000000000000000000 PUSH1 0x0 MSTORE PUSH1 0x41 PUSH1 0x4 MSTORE PUSH1 0x24 PUSH1 0x0 REVERT JUMPDEST PUSH2 0xD39 DUP3 PUSH2 0xC32 JUMP JUMPDEST DUP2 ADD DUP2 DUP2 LT PUSH8 0xFFFFFFFFFFFFFFFF DUP3 GT OR ISZERO PUSH2 0xD58 JUMPI PUSH2 0xD57 PUSH2 0xD01 JUMP JUMPDEST JUMPDEST DUP1 PUSH1 0x40 MSTORE POP POP POP JUMP JUMPDEST PUSH1 0x0 PUSH2 0xD6B PUSH2 0x9C4 JUMP JUMPDEST SWAP1 POP PUSH2 0xD77 DUP3 DUP3 PUSH2 0xD30 JUMP JUMPDEST SWAP2 SWAP1 POP JUMP JUMPDEST PUSH1 0x0 PUSH8 0xFFFFFFFFFFFFFFFF DUP3 GT ISZERO PUSH2 0xD97 JUMPI PUSH2 0xD96 PUSH2 0xD01 JUMP JUMPDEST JUMPDEST PUSH2 0xDA0 DUP3 PUSH2 0xC32 JUMP JUMPDEST SWAP1 POP PUSH1 0x20 DUP2 ADD SWAP1 POP SWAP2 SWAP1 POP JUMP JUMPDEST DUP3 DUP2 DUP4 CALLDATACOPY PUSH1 0x0 DUP4 DUP4 ADD MSTORE POP POP POP JUMP JUMPDEST PUSH1 0x0 PUSH2 0xDCF PUSH2 0xDCA DUP5 PUSH2 0xD7C JUMP JUMPDEST PUSH2 0xD61 JUMP JUMPDEST SWAP1 POP DUP3 DUP2 MSTORE PUSH1 0x20 DUP2 ADD DUP5 DUP5 DUP5 ADD GT ISZERO PUSH2 0xDEB JUMPI PUSH2 0xDEA PUSH2 0xCFC JUMP JUMPDEST JUMPDEST PUSH2 0xDF6 DUP5 DUP3 DUP6 PUSH2 0xDAD JUMP JUMPDEST POP SWAP4 SWAP3 POP POP POP JUMP JUMPDEST PUSH1 0x0 DUP3 PUSH1 0x1F DUP4 ADD SLT PUSH2 0xE13 JUMPI PUSH2 0xE12 PUSH2 0xCF7 JUMP JUMPDEST JUMPDEST DUP2 CALLDATALOAD PUSH2 0xE23 DUP5 DUP3 PUSH1 0x20 DUP7 ADD PUSH2 0xDBC JUMP JUMPDEST SWAP2 POP POP SWAP3 SWAP2 POP POP JUMP JUMPDEST PUSH2 0xE35 DUP2 PUSH2 0xC7C JUMP JUMPDEST DUP2 EQ PUSH2 0xE40 JUMPI PUSH1 0x0 DUP1 REVERT JUMPDEST POP JUMP JUMPDEST PUSH1 0x0 DUP2 CALLDATALOAD SWAP1 POP PUSH2 0xE52 DUP2 PUSH2 0xE2C JUMP JUMPDEST SWAP3 SWAP2 POP POP JUMP JUMPDEST PUSH1 0x0 DUP1 PUSH1 0x0 PUSH1 0x60 DUP5 DUP7 SUB SLT ISZERO PUSH2 0xE71 JUMPI PUSH2 0xE70 PUSH2 0x9CE JUMP JUMPDEST JUMPDEST PUSH1 0x0 DUP5 ADD CALLDATALOAD PUSH8 0xFFFFFFFFFFFFFFFF DUP2 GT ISZERO PUSH2 0xE8F JUMPI PUSH2 0xE8E PUSH2 0x9D3 JUMP JUMPDEST JUMPDEST PUSH2 0xE9B DUP7 DUP3 DUP8 ADD PUSH2 0xDFE JUMP JUMPDEST SWAP4 POP POP PUSH1 0x20 PUSH2 0xEAC DUP7 DUP3 DUP8 ADD PUSH2 0x9F9 JUMP JUMPDEST SWAP3 POP POP PUSH1 0x40 PUSH2 0xEBD DUP7 DUP3 DUP8 ADD PUSH2 0xE43 JUMP JUMPDEST SWAP2 POP POP SWAP3 POP SWAP3 POP SWAP3 JUMP JUMPDEST PUSH32 0x4E487B7100000000000000000000000000000000000000000000000000000000 PUSH1 0x0 MSTORE PUSH1 0x12 PUSH1 0x4 MSTORE PUSH1 0x24 PUSH1 0x0 REVERT JUMPDEST PUSH32 0x4E487B7100000000000000000000000000000000000000000000000000000000 PUSH1 0x0 MSTORE PUSH1 0x11 PUSH1 0x4 MSTORE PUSH1 0x24 PUSH1 0x0 REVERT JUMPDEST PUSH1 0x0 PUSH2 0xF30 DUP3 PUSH2 0x9D8 JUMP JUMPDEST SWAP2 POP PUSH2 0xF3B DUP4 PUSH2 0x9D8 JUMP JUMPDEST SWAP3 POP DUP3 PUSH2 0xF4B JUMPI PUSH2 0xF4A PUSH2 0xEC7 JUMP JUMPDEST JUMPDEST DUP3 DUP3 DIV SWAP1 POP SWAP3 SWAP2 POP POP JUMP JUMPDEST PUSH32 0x4E487B7100000000000000000000000000000000000000000000000000000000 PUSH1 0x0 MSTORE PUSH1 0x22 PUSH1 0x4 MSTORE PUSH1 0x24 PUSH1 0x0 REVERT JUMPDEST PUSH1 0x0 PUSH1 0x2 DUP3 DIV SWAP1 POP PUSH1 0x1 DUP3 AND DUP1 PUSH2 0xF9D JUMPI PUSH1 0x7F DUP3 AND SWAP2 POP JUMPDEST PUSH1 0x20 DUP3 LT DUP2 EQ ISZERO PUSH2 0xFB1 JUMPI PUSH2 0xFB0 PUSH2 0xF56 JUMP JUMPDEST JUMPDEST POP SWAP2 SWAP1 POP JUMP JUMPDEST PUSH1 0x0 PUSH2 0xFC2 DUP3 PUSH2 0x9D8 JUMP JUMPDEST SWAP2 POP PUSH32 0xFFFFFFFFFFFFFFFFFFFFFFFFFFFFFFFFFFFFFFFFFFFFFFFFFFFFFFFFFFFFFFFF DUP3 EQ ISZERO PUSH2 0xFF5 JUMPI PUSH2 0xFF4 PUSH2 0xEF6 JUMP JUMPDEST JUMPDEST PUSH1 0x1 DUP3 ADD SWAP1 POP SWAP2 SWAP1 POP JUMP JUMPDEST PUSH1 0x0 PUSH1 0x40 DUP3 ADD SWAP1 POP PUSH2 0x1015 PUSH1 0x0 DUP4 ADD DUP6 PUSH2 0xB26 JUMP JUMPDEST PUSH2 0x1022 PUSH1 0x20 DUP4 ADD DUP5 PUSH2 0xAFC JUMP JUMPDEST SWAP4 SWAP3 POP POP POP JUMP INVALID LOG2 PUSH5 0x6970667358 0x22 SLT KECCAK256 PUSH27 0x549B3E88A4E3199B809A5707B4F784A6438066E2799E1512BF9ED9 CALLDATASIZE SWAP16 SWAP4 0xF8 PUSH5 0x736F6C6343 STOP ADDMOD SIGNEXTEND STOP CALLER LOG2 PUSH5 0x6970667358 0x22 SLT KECCAK256 PUSH7 0x22E50E047AA99C 0xA8 0x26 MSIZE PUSH8 0x9C55CD6FACFD3DAE 0xD4 SAR TIMESTAMP 0xC3 PUSH14 0xFE4346E46CF75F64736F6C634300 ADDMOD SIGNEXTEND STOP CALLER "},"gasEstimates":{"creation":{"codeDepositCost":"1133400","executionCost":"1180","totalCost":"1134580"},"external":{"createCampaign(uint256)":"infinite","deployedCampaigns(uint256)":"4934","getDeployedCampaigns()":"infinite"}},"methodIdentifiers":{"createCampaign(uint256)":"a3303a75","deployedCampaigns(uint256)":"339d50a5","getDeployedCampaigns()":"4acb9d4f"}},"storageLayout":{"storage":[{"astId":4,"contract":"Campaign.sol:CampaignFactory","label":"deployedCampaigns","offset":0,"slot":"0","type":"t_array(t_address)dyn_storage"}],"types":{"t_address":{"encoding":"inplace","label":"address","numberOfBytes":"20"},"t_array(t_address)dyn_storage":{"base":"t_address","encoding":"dynamic_array","label":"address[]","numberOfBytes":"32"}}},"userdoc":{"kind":"user","methods":{},"version":1}}